:020000040800F2
:1000000000000820350A0008E13B0008E33B000837
:10001000E53B0008E73B0008E93B00080000000062
:1000200000000000000000000000000091C3000874
:10003000EB3B00080000000031C4000895C4000834
:10004000850A0008850A0008850A0008850A000854
:10005000850A0008850A0008850A0008850A000844
:10006000850A0008850A0008850A0008850A000834
:10007000850A0008850A0008850A0008850A000824
:10008000850A0008850A0008850A0008ED3B00087B
:10009000F93B0008FD3B0008013C0008850A000808
:1000A000850A0008850A0008850A0008850A0008F4
:1000B000850A0008850A0008850A0008850A0008E4
:1000C000850A0008850A0008850A0008850A0008D4
:1000D000850A0008850A0008850A0008850A0008C4
:1000E000053C0008850A0008850A0008850A000802
:1000F000850A00080D3C0008850A0008850A0008EA
:10010000850A0008850A0008850A0008850A000893
:10011000850A0008850A0008193C0008850A0008BD
:10012000850A0008850A0008850A0008850A000873
:10013000850A0008850A0008850A0008850A000863
:10014000850A0008850A0008850A0008850A000853
:10015000850A0008850A0008850A0008850A000843
:10016000850A0008850A0008850A0008850A000833
:10017000850A0008850A0008850A000800000000BA
:10018000850A0008850A0008850A0008850A000813
:10019000850A0008850A0008850A0008850A000803
:1001A000253C0008850A0008313C0008850A000843
:1001B000850A0008850A0008850A00083D3C0008F9
:1001C000850A0008850A0008493C0008850A0008DD
:1001D000850A0008850A0008850A0008850A0008C3
:1001E000850A0008850A0008850A0008850A0008B3
:0801F000850A0008850A0008D9
:1002000010B5054C237833B9044B13B10448AFF350
:1002100000800123237010BDE006002000000000D4
:100220004C3D030808B5034B1BB103490348AFF32A
:10023000008008BD00000000E40600204C3D0308DB
:10024000034613F8012B002AFBD1181A0138704716
:1002500001F0FF01102A2BDB10F0070F08D010F877
:10026000013B013A8B422DD010F0070F42B3F6D17B
:10027000F0B441EA012141EA014122F007047FF094
:1002800000070023F0E80256083C85EA010586EAEB
:10029000010685FA47F5A3FA87F586FA47F6A5FA27
:1002A00087F68EB9EED1F0BC01F0FF0102F0070233
:1002B00032B110F8013B013A83EA010313B1F8D1DE
:1002C0000020704701387047002D06BF35460338BF
:1002D000073815F0010F07D1013015F4807F02BFF8
:1002E000013015F4C03F0130F0BC0138704700BF49
:1002F00081F0004102E000BF83F0004330B54FEAD7
:1003000041044FEA430594EA050F08BF90EA020F43
:100310001FBF54EA000C55EA020C7FEA645C7FEAD6
:10032000655C00F0E2804FEA5454D4EB5555B8BFF9
:100330006D420CDD2C4480EA020281EA030382EA6A
:10034000000083EA010180EA020281EA0303362DFC
:1003500088BF30BD11F0004F4FEA01314FF4801CCF
:100360004CEA113102D0404261EB410113F0004FE1
:100370004FEA03334CEA133302D0524263EB430398
:1003800094EA050F00F0A780A4F10104D5F1200E36
:100390000DDB02FA0EFC22FA05F2801841F1000191
:1003A00003FA0EF2801843FA05F359410EE0A5F165
:1003B00020050EF1200E012A03FA0EFC28BF4CF096
:1003C000020C43FA05F3C01851EBE37101F000454C
:1003D00007D54FF0000EDCF1000C7EEB00006EEB59
:1003E0000101B1F5801F1BD3B1F5001F0CD34908E3
:1003F0005FEA30004FEA3C0C04F101044FEA44523A
:1004000012F5800F80F09A80BCF1004F08BF5FEAC0
:10041000500C50F1000041EB045141EA050130BDA0
:100420005FEA4C0C404141EB0101013C28BFB1F5B2
:10043000801FE9D291F0000F04BF01460020B1FAFD
:1004400081F308BF2033A3F10B03B3F120020CDAD0
:100450000C3208DD02F1140CC2F10C0201FA0CF0AE
:1004600021FA02F10CE002F11402D8BFC2F1200C13
:1004700001FA02F120FA0CFCDCBF41EA0C019040C9
:10048000E41AA2BF01EB0451294330BD6FEA040412
:100490001F3C1CDA0C340EDC04F11404C4F12002FD
:1004A00020FA04F001FA02F340EA030021FA04F30F
:1004B00045EA030130BDC4F10C04C4F1200220FA66
:1004C00002F001FA04F340EA0300294630BD21FAA4
:1004D00004F0294630BD94F0000F83F4801306BF6A
:1004E00081F480110134013D4EE77FEA645C18BF5E
:1004F0007FEA655C29D094EA050F08BF90EA020FF5
:1005000005D054EA000C04BF1946104630BD91EAEC
:10051000030F1EBF0021002030BD5FEA545C05D1EF
:100520004000494128BF41F0004130BD14F580042E
:100530003CBF01F5801130BD01F0004545F0FE41A2
:1005400041F470014FF0000030BD7FEA645C1ABFD7
:10055000194610467FEA655C1CBF0B46024650EA0E
:10056000013406BF52EA033591EA030F41F400213A
:1005700030BD00BF90F0000F04BF0021704730B5C0
:100580004FF4806404F132044FF000054FF0000195
:1005900050E700BF90F0000F04BF0021704730B556
:1005A0004FF4806404F1320410F0004548BF40422B
:1005B0004FF000013EE700BF42004FEAE2014FEA80
:1005C00031014FEA02701FBF12F07F4393F07F4F5B
:1005D00081F06051704732F07F4208BF704793F05E
:1005E0007F4F04BF41F40021704730B54FF4607471
:1005F00001F0004521F000411CE700BF50EA010274
:1006000008BF704730B54FF000050AE050EA01021C
:1006100008BF704730B511F0004502D5404261EB8C
:1006200041014FF4806404F132045FEA915C3FF4CD
:10063000D8AE4FF003025FEADC0C18BF03325FEA6A
:10064000DC0C18BF033202EBDC02C2F1200300FA1B
:1006500003FC20FA02F001FA03FE40EA0E0021FA40
:1006600002F11444BDE600BF7BB972B90029BEBFD8
:1006700000204FF0004106E008BF00281CBF6FF0CB
:1006800000414FF0FF3000F0D3B9ADF1080C6DE937
:1006900004CE002909DB002B1ADB00F04DF8DDF851
:1006A00004E0DDE9022304B07047404261EB410100
:1006B000002B1BDB00F040F8DDF804E0DDE902234D
:1006C00004B0404261EB4101524263EB4303704787
:1006D000524263EB430300F02FF8DDF804E0DDE95C
:1006E000022304B0404261EB41017047524263EB88
:1006F000430300F021F8DDF804E0DDE9022304B053
:10070000524263EB4303704753B94AB9002908BF0B
:1007100000281CBF4FF0FF314FF0FF3000F088B9C8
:10072000ADF1080C6DE904CE00F006F8DDF804E048
:10073000DDE9022304B070472DE9F047089D8E469D
:1007400004468846002B4AD18A42174662D9B2FA3B
:1007500082F64EB1C6F1200301FA06F820FA03F33F
:10076000B74043EA0808B4404FEA174E1FFA87FC27
:10077000B8FBFEF1230C0EFB118843EA084301FB92
:100780000CF29A4209D9FB1801F1FF3080F0EA809F
:100790009A4240F2E78002393B449A1AA3B2B2FB74
:1007A000FEF00EFB102243EA024300FB0CFC9C45CA
:1007B00009D9FB1800F1FF3280F0D6809C4540F249
:1007C000D3803B44023840EA0140A3EB0C030021F4
:1007D0001DB1F3400022C5E90032BDE8F0878B422D
:1007E00005D90DB1C5E9000100210846F5E7B3FAC6
:1007F00083F1002946D1734502D3824200F205817C
:10080000841A6EEB030201209046002DE5D0C5E965
:100810000048E2E7002A00F09080B2FA82F6002E4B
:1008200040F0A4808A1A030C4FEA174E80B2BCB283
:100830000121B2FBFEFC0EFB1C2243EA024304FB37
:100840000CF29A4207D9FB180CF1FF3802D29A42F7
:1008500000F2E080C4469B1AB3FBFEF20EFB12339B
:1008600040EA034302FB04F49C4207D9FB1802F15F
:10087000FF3002D29C4200F2CA8002461B1B42EAB1
:100880000C40A5E7C1F120068B4022FA06F71F4372
:100890000EFA01F420FA06F32EFA06FE4FEA174983
:1008A000234300FA01F81FFA87FCBEFBF9F01C0C89
:1008B00009FB10EE44EA0E4400FB0CFEA64502FACA
:1008C00001F209D93C1900F1FF3A80F09C80A6455D
:1008D00040F2998002383C44A4EB0E041FFA83FED8
:1008E000B4FBF9F309FB13444EEA044403FB0CFC8C
:1008F000A44508D93C1903F1FF3E80F08280A4454D
:100900007FD9023B3C4443EA0040A4EB0C04A0FB2B
:1009100002EC64457346E14662D35FD05DB1B8EB4B
:10092000030264EB090404FA06F622FA01F31E43FB
:10093000CC40C5E9006400214FE7B1FBF2FC010C9B
:1009400041EA0E4180B240EA01423B4638463C460D
:10095000B846BE462026B1FBF7F1A2EB080241EAF9
:100960000C4166E7014618E710462CE7C6F1200265
:100970002EFA02F3B740B14020FA02F24FEA174EC6
:100980000A43B3FBFEF8BCB20EFB1833110C41EA6C
:10099000034108FB04F9B04089454FEA104380B297
:1009A0003ED9791808F1FF3C01D289451FD8A1EB47
:1009B0000901B1FBFEF909FB04F80EFB191192B213
:1009C00042EA0142424529D2BA1809F1FF31C4D2A4
:1009D0004245C2D2A9F102013A44BEE7F0459DD298
:1009E000BEEB02036CEB070C0138E14696E7A7EB80
:1009F00009094944A8F1020CB1FBFEF909FB04F80E
:100A0000DBE773467FE7504666E70846FDE63B4472
:100A1000023A33E7ACF1020C3B441CE749469CE741
:100A2000A1EB0901C446B1FBFEF909FB04F8C4E7D8
:100A3000704700BFDFF834D0002103E00C4B5B5857
:100A4000435004310B480C4B42189A42F6D30B4AE0
:100A500002E0002342F8043B094B9A42F9D307F025
:100A60003FFE32F0B7FB02F041F87047000008206B
:100A7000B891030800000020C8040020E006002010
:100A8000007D0120FEE77047704708B501F002FBCA
:100A9000BDE8084001F086BA01F0FEBA174B1A6BA8
:100AA00042F0010210B586B01A631B6B03F001031C
:100AB0000093009B59B9012303911148CDE90131FD
:100AC000022301A9049308F0EBFF06B010BD012931
:100AD000FBD100240223019101A90948CDE9034378
:100AE0004FF48813029308F0DBFF22460F21062003
:100AF00008F0B8F9062008F0E7F9E6E70038024008
:100B000000000240002108B50846FFF7C7FF08BDF6
:100B10000121024808B509F0A7F808BD000002400D
:100B200008B50020FFF7F4FF08BD4068704741603A
:100B3000704700004FF0E022D2F8FC3D43F0807394
:100B4000C2F8FC3D054B064AD3F8B01F0A43C3F870
:100B5000B02F1A6842F001021A607047001000E0DE
:100B600055CEACC5521A02EB5302B2FBF3F07047FC
:100B7000014B5868704700BF001000E0704710B587
:100B800004460C2131F0CFFA204610BD036810B5A1
:100B90001B69044631B19847A26863689B1A0344F5
:100BA000636010BD9847A060FBE770477047000086
:100BB00008B5FFF7A7FF024B00221A6008BD00BF6F
:100BC000FC06002070B50D46FFF7AAFF0B4AC4B221
:100BD00093785678117813F00100D37096705170A5
:100BE00014700AD016F0010007D011F0010004D0F3
:100BF000E30756BF01200020287070BDFC060020CE
:100C000010B50446042131F08EFA204610BD70471D
:100C10007FB500234FF0FF3254210B488DF8173079
:100C20000123CDE901320DF117020092A82209F04B
:100C30009DFA9DF81730112B044B14BF70225422DB
:100C40001A8007B05DF804FB84270020000700200D
:100C500010B50446042131F066FA204610BD0000AC
:100C60002DE9F04F89B04FF000081446344B4FF493
:100C7000807206AF8DF816800E46CDF818808DF87C
:100C80001780A7F80480C3F88420BFF34F8FBFF309
:100C90006F8FDFF8B4B09BF80030002B43D00125F4
:100CA000DFF8A8904FF0FF3A02222B460097254824
:100CB000CDE9015AB9F8001009F058FA9DF818303A
:100CC0000222204803F00F038DF816300DF11703B0
:100CD000CDE9015A00932B46B9F8001009F06CF9E0
:100CE0008BF800809DF81630EBB104230322CDF879
:100CF00008A01448CDE900732B46B9F8001009F09C
:100D000035FA9DF818309DF819201B0203F4706322
:100D100013449DF81B2033609DF81A301B0203F426
:100D2000706313442360064B4FF480725A609DF841
:100D30001600003818BF012009B0BDE8F08F00BFD1
:100D400000E100E0842700200207002000070020C7
:100D5000B0F5005F02D1024B01221A70704700BF4C
:100D600002070020032823D8DFE800F0020B121A44
:100D7000104B40211A68B2FA82F252090E4808F06C
:100D800079BF0C4B80215A68B2FA82F25209F5E71A
:100D9000084B022109489A68B2FA82F25209EEE73A
:100DA000044B40210648DA68B2FA82F25209E6E7BB
:100DB000704700BF040700200008024000240240E2
:100DC00000140240032823D8DFE800F0020B121AB7
:100DD000104B40211A68003A18BF01220E4808F053
:100DE00049BF0C4B80215A68003A18BF0122F5E731
:100DF000084B022109489A68003A18BF0122EEE721
:100E0000044B40210648DA68003A18BF0122E6E7A1
:100E1000704700BF04070020000802400024024081
:100E20000014024003280FD8DFE800F00206080B88
:100E30004021064808F023BF8021FAE70221044838
:100E4000F8E740210348F5E7704700BF000802407B
:100E5000002402400014024008B5032813D8DFE83C
:100E600000F0020A0C0F4021084808F0FDFE431E66
:100E70005842584108BD8021F6E702210448F4E7B2
:100E800040210448F1E70020F1E700BF00080240DC
:100E9000002402400014024070B5084D00240126D1
:100EA000E0B2FFF7D9FF18B12B68012B18BF2E60F5
:100EB00001340435052CF3D170BD00BF04070020B8
:100EC000012380F8781080F879307047704700204F
:100ED0007047000041640039024B18BF01211970AE
:100EE000704700BFBF6F0120704700207047836BC1
:100EF0000BB10846184770474FF6FF7070474068BF
:100F000003689B691847704770470000014B1868D9
:100F1000704700BF240700207047000038B5074D18
:100F2000044601F085FA2846FFF704FE01232561F7
:100F300084F87030024B636138BD00BF1807002091
:100F400014070020014B196001F098B92407002014
:100F5000F0B40023104CC4F88430BFF34F8FD4F8A2
:100F6000803043F6E076C3F3C905C3F34E335B012B
:100F700003EA060C2A464CEA8277013AC4F87472F6
:100F8000F9D2203B13F1200FF2D1BFF34F8FBFF303
:100F90006F8FF0BC01F070BA00ED00E001F06EBAA6
:100FA00008B501F051F9002207215A2007F05AFF35
:100FB000002207216220BDE8084007F053BF00006F
:100FC000024B0422DA6001F0BDBB00BF00E100E08B
:100FD00001F04EBA73B50C4E0446337843B1002588
:100FE0002923152209482946009508F0D2FC3570BE
:100FF000204601F03FFA94F84B3013B1044B012224
:101000001A7002B070BD00BF04000020D827002075
:101010000500002010B504461BF09CF8236820460C
:10102000D3F8BC30BDE8104018471AF0AFBA10B57D
:101030000446842131F077F8204610BD90F8341032
:101040000D4B10B590F878401A788C4209D03AB917
:101050000A490B4A08881488108001220C801A70F3
:1010600010BD002AFCD0064A0449148808880C8068
:1010700010800022F3E700BFB86F0120B66F012097
:10108000B46F012070B50D46194635B9094B40F2D1
:10109000FF21094A094831F0BFFBC0E90F52003A6D
:1010A000074B18BF01221A700368BDE87040D3F8DF
:1010B00090301847043E03083C3E03088A3E03086C
:1010C000BE6F012008B5094B1B888B4203D8084B23
:1010D0001B88934205D9074BA321074A074831F0E3
:1010E0009BFB074B1980074B1A8008BDB46F01208A
:1010F000B66F0120CF3E0308323F03088A3E030843
:10110000BA6F0120BC6F0120044B0422C3F88C206D
:10111000BFF34F8FBFF36F8F01F01EBB00E100E004
:10112000034690F87A0018B1586803681B6818479E
:101130007047000007B500213523152203480091B0
:1011400008F027FC03B05DF804FB00BFD82700209F
:1011500010B50446FFF7EEFF0F4B022220461B6836
:10116000C3F810240122C3F81024D3F8082442F055
:101170000102C3F80824D3F8082442F00202C3F89D
:101180000824064B1A68536B43F00303BDE8104074
:10119000536301F063B800BFD8270020DC2600208D
:1011A00010B50C4C237833B108F0E3FB0020FFF7B7
:1011B000D9FD00232370084B1B6893F86A20013285
:1011C00083F86A200022BDE8104083F87C2000F0FC
:1011D00075B800BF05000020C06F012010B50020C9
:1011E000FFF7F0FD044B1C68236820461B6A9847F4
:1011F000012384F87C3010BDC06F0120014608B582
:10120000034B186801B101211AF0BEFF012008BD8F
:10121000C06F0120054B002205485A609A60054ABC
:101220001A60054B0360FFF7C3BC00BF180700201E
:1012300014070020B03D0308D83D03080121002217
:1012400008B508460AF06AFD0A4B186028B90A4B2F
:1012500028210A4A0A4831F0DFFA0022042101203D
:101260000AF026FE074B186018B9074B2C21034AD9
:10127000F0E708BD2C070020753F0308BE3F0308B8
:10128000ED3F0308280700202F400308024B4FF0D2
:10129000FF3118680AF09ABD2C070020014B18682E
:1012A0000AF0D0BD2C070020024B002118680AF07C
:1012B0008DBD00BF2C070020FFF7F0BF00230348BF
:1012C00003491A4600680AF039BE00BF280700200B
:1012D0000800002013B50023074C01A91A46206816
:1012E0000AF06EFE4FF0FF33002201A920680AF0D9
:1012F00067FE02B010BD00BF2807002003685B6CCA
:1013000018470120704703689B6A1847FEE70000F2
:101310000E4B82B01A6B42F400021A631A6B02F48D
:1013200000020192019A1A6942F400021A611A69D4
:1013300022F400021A61064B064A9A61064ADA61F3
:101340004FF08062054B9A6002B07047003802404F
:10135000F4270020E91500080D13000800E100E063
:1013600040F2EF3070470000054B4FF080620360A1
:10137000044BC3F88820BFF34F8FBFF36F8F7047C4
:10138000406D030800E100E010B504464FF45A61D7
:10139000FFF7EAFF204630F0C6FE204610BD0000F1
:1013A00008B50A2809D8DFE800F006100E0808087A
:1013B000081010101000022008BD054B9021054AAE
:1013C000054831F029FA0020F6E70120F4E700BFD4
:1013D000714003088C400308D740030838B50C4619
:1013E000887FFFF7DDFF174BA58AE28A586342EA40
:1013F000054221695A64628BD963521B1A642568BD
:10140000082D0ED19A611A6158620F4A207F42EA74
:101410000062DA61E2681A620C4A5961D9601A60A6
:1014200038BD0022D8611A61E1680A0A4809C1F38F
:10143000C40102F4784200F4FC6002430A439A6358
:10144000034AECE700B0024009000100012302005A
:101450000123030008B50B280BD8DFE800F00612C3
:10146000100A0A0A0A0808080808022008BD052010
:10147000FCE7054B6F21054A054831F0CDF9002006
:10148000F4E70120F2E700BF7140030817410308A9
:10149000D74003082DE9F04191F81D800C464046E5
:1014A000FFF7D8FFA77F05463846FFF7D3FF06466C
:1014B0003846FFF775FFA18A628B434B521A1A64B4
:1014C0009A61228B521A1A61E28A586342EA0142F7
:1014D00021695A646268D963DA602068802828D05C
:1014E000227F0FD8202866D0402864D004281AD044
:1014F00045EA0265344BB84545F40035DD6160D0FE
:10150000324A44E0B0F5807F04D0B0F5007FEFD1DF
:101510002F4800E02F4840EA0262DA61E2681A626E
:101520005E62596132E045EA026242F40032DA61F9
:10153000F6E7A068021DDA62227F45EA026545F4FB
:101540000035DD615E625961017841B1012921D028
:10155000214B4FF48D71214A214831F05DF9DA6950
:10156000418822F47F42013922F0100242EA01222E
:101570000121DA61144BDA6942F02002DA61DA699A
:101580009206FCD410229A600029B9D0154A1A603C
:10159000BDE8F081B2F1FF01DA69408822F47F42B0
:1015A00018BF0121013822F0100242EA002242F065
:1015B0001002DA61DEE745EA0262034B42F40032D0
:1015C000B5E742F20132E2E700B002400123010038
:1015D000090002000A000200614103087B41030880
:1015E000D740030801230200024B1B6858680368B8
:1015F0005B691847C06F012070B504460A4B0C3078
:1016000000262546602260602672667245F8203BFF
:1016100029461AF00DFF04F55A63EE6024359D4209
:10162000FBD1204670BD00BF406D0308034B1A6814
:10163000D207FCD423229A60704700BF00B002405A
:10164000094B5A69D2030AD5BFF34F8F08440029CA
:10165000A0EB010204DCBFF34F8FBFF36F8F704725
:101660002039C3F86822F2E700ED00E030B5104CF5
:101670002568ED07FCD423250904FF2BA56041F064
:1016800001014FF0020565636164E0630AD0094916
:10169000656241EA0363E361074B22626061E060D7
:1016A000236030BDE561039BA363044BF8E700BFF3
:1016B00000B0024009000100010002000100030027
:1016C00030B50F4C2568ED07FCD423251204FF2B01
:1016D000A56042F001024FF0020565636264E063B9
:1016E000E16008D01B0643F00213E361054B65621D
:1016F0006061236030BD044BE3610123F9E700BF63
:1017000000B0024001000200020002FF30B50B4CA5
:101710002568ED07FCD4232512041B06A56042F0C2
:101720000102022543F4003365636264E063E16013
:10173000E361034B65626061236030BD00B002402D
:10174000010002004069704790F844007047036B45
:1017500023B9C06A003818BF0120704701207047C4
:1017600080687047043010B50C460FC884E80F003D
:1017700010BD704708B5034A40F22A21024B0348C6
:1017800031F04AF8B9410308F3550308144203083D
:1017900010B50446482130F0C6FC204610BD0000BC
:1017A0002DE9F0471D46ADF51E7D436B07460E46FD
:1017B0009046BDF89842002B3BD0002203A8DFF8EA
:1017C000B0A0CDE9013212F035FC4FF4F472502193
:1017D000249024A80CF0FDFB4246314624A80DF0CD
:1017E00047FB012124A866000CF0EEFC022324A88C
:1017F0008DF8D8300CF089FD2B9BBDF89C82A3425C
:1018000028BF23461A46419B5443984502EB4209A0
:1018100028BF98460134531E640006FB03557642E8
:10182000479B984509D824A80CF0F0FC24A80CF09C
:101830001DFC0DF51E7DBDE8F087012201A924A83D
:101840000CF0ACFD7A6B02EB0900904201D8254404
:10185000E6E751789378C9000AEA032301F4FC61B2
:101860000B4312F8031B43EAD1032B803544ECE70A
:1018700000F8FFFF0A4A02600022C0E90522C0E921
:101880000722C0E90922C0E90B22C0E90D12C0E914
:101890000F2280F84420C0E90322C0E901227047EA
:1018A000906D030810B40C4611461A46036B3BB109
:1018B000036C806BE41A20445DF8044B31F0D8BB14
:1018C000C06AF8E7036B10B573B1036C826BC91A79
:1018D0005318525C98785C780004DB7840EA042066
:1018E000104340EA036010BDC36A5858FBE7036B1E
:1018F00043B1036CC91A836B5A18585C527840EA9A
:1019000002207047C36A585A7047000070B50446F9
:10191000006B0D461646D8B1E36B934208D20923FB
:101920000D4A65210D4884F844300D4B30F074FFAA
:101930000368DB689847206B3246A16B03681B691C
:10194000984710B90D2384F84430A06B256470BD0E
:10195000E06A0844FBE700BF73420308144203082F
:10196000604203082DE9F843436904462BB9234B31
:10197000AA21234A234830F04FFF08228169FFF74C
:10198000C5FFA16943F2300646F2643704312046B0
:10199000FFF798FFA3691844A36A00F108029A426E
:1019A00006D3012300206361236AA361BDE8F883A5
:1019B000636909300822013320F001012046636188
:1019C000A161FFF7A3FFD4F8189020464946FFF71E
:1019D0008EFF09F1020180462046FFF788FF09F1DA
:1019E000040105462046FFF76DFFB045D2D1BD4248
:1019F000D0D10028CED00120D8E700BFB5420308DF
:101A0000FE420308144203082DE9F04F0446ADF5E9
:101A10001F7D8A461646816908229846FFF776FFA1
:101A2000A7692046391DFFF74DFF07F1080102465F
:101A300005462046FFF76AFF636B074633B9414B03
:101A400040F2B911404A414830F0E6FE002203A8B6
:101A5000CDE9013212F0EEFA4FF4F47250212490E5
:101A600024A80CF0B6FA2A46394624A80DF000FA4C
:101A7000012124A80CF0A8FB022324A88DF8D8305B
:101A80000CF043FCBAF90250479BAB422ED3BAF993
:101A90000090BAF804702B9B09EB490B4F443FB2FE
:101AA0009F4228BF1F46013B08FB0355BAF806308A
:101AB00006EB4506BAF802501D44419B2DB29D42EB
:101AC00028BF1D466FF0010303FB08F808FB09FA65
:101AD000479A954210D824A80CF098FB24A80CF043
:101AE000C5FA01200DF51F7DBDE8F08F012201A987
:101AF00024A80CF053FCC7E7012201A924A80CF08C
:101B00004DFC626B06EB0A0C48465A44104BB84237
:101B100002F1030201D30236DAE712F802EC0130D7
:101B200012F8011C4FEACE0E03EA01210EF4FC6EFE
:101B300041EA0E0112F803EC41EADE01ACF80010B4
:101B4000C444E4E73143030887430308144203080D
:101B500000F8FFFF0129036838BF0121DB6A70B577
:101B60000D4604469847A84204D223682046DB6A03
:101B7000984705466B1EE6691022204606EB0316C1
:101B800006F10801FFF7C2FE06F110012046FFF73B
:101B900099FE236A043B0344C4E9055370BD000069
:101BA000002148222DE9F0410446816180F844106B
:101BB000FFF7ACFEA6690423624A31462046FFF7D0
:101BC00071FE40B10323604AF22184F844305F4B38
:101BD0005F4830F021FE06F1080104235D4A2046EB
:101BE000A161FFF75FFE30B10423574AFA2184F860
:101BF0004430594BECE706F10C010423574A2046C8
:101C0000A161FFF74FFE074638B105234E4A40F267
:101C1000011184F84430524BDAE706F110012046F6
:101C2000FFF750FE054620B94E4B40F20711464AD9
:101C3000CEE706F1140804234B4A20464146FFF73D
:101C400031FE002849D0062384F844300423474A53
:101C500006F118012046FFF725FE00283FD0072394
:101C600084F844304544424F0C2220462946FFF771
:101C70004DFE05F1080604233A4620463146FFF79B
:101C800011FE94F84430002848D0002B48D1A36AB4
:101C9000AB4249D805F10C0304352046A36129461F
:101CA000FFF710FE3044294660622046FFF70AFE27
:101CB0000644042220463146FFF728FE04232D4A1D
:101CC00031462046FFF7EEFD002838D10123E661BA
:101CD0006361A3692362BDE8F0810127B6E7002FA5
:101CE000C0D006F120012046FFF7ECFD4FF47A73D7
:101CF00006F13001B0FBF3F060602046FFF7E2FD33
:101D000006F14001A0602046FFF7DCFD06F144012A
:101D1000E0602046FFF7D6FD2061A3E7002BB9D095
:101D20000A2384F84430D6E7291D2046FFF7CAFD70
:101D300085190C2220462946FFF7E8FD99E70B2379
:101D4000EFE700BFE1430308FF430308E64303084E
:101D5000144203082C44030831440308494403088F
:101D60004E440308644403087044030875440308A0
:101D70007A4403087F440308C0E90A210022026371
:101D8000FFF70EBF10B5002304460846E3620B6858
:101D900021639B689847A0622046BDE81040FFF78A
:101DA000FFBE70B4BDF80C50BDF810602AB123B16D
:101DB000CDE9035670BCFFF7F3BC70BC7047000060
:101DC0002DE9F04F9946436985B004460F46904689
:101DD0002BB9294B7721294A294830F01DFD0822CB
:101DE0008169FFF793FDA66920463146FFF77FFD25
:101DF000B11C83462046FFF77AFD311D82462046FE
:101E0000FFF760FD06F10801A36A05460A189A4229
:101E100026D243F230039B4517D146F264339A45EC
:101E200013D190B10246A1612046FFF76FFD0E9BD2
:101E300001462A462046CDF80080CDE901933B4675
:101E4000FFF7AFFF636901336361A3692B4405B9F1
:101E500008330133626A23F001039342A36109D17D
:101E6000012301206361236AA36180F0010005B0B2
:101E7000BDE8F08F0020F8E7B5420308844403086A
:101E800014420308012070470C2070470C2303FB09
:101E90000100083070470C2303FB01000830704735
:101EA0000120704798207047982303FB01000830F9
:101EB0007047982303FB01000830704701207047EA
:101EC0001020704700EB01100830704700EB011044
:101ED00008307047084602F0A7B80000034B10B561
:101EE0000446036019F0A8F8204610BD386E0308B8
:101EF00010B50446FFF7F2FF1421204630F013F925
:101F0000204610BD034B10B50446036019F094F849
:101F1000204610BD046E030810B50446FFF7F2FF1B
:101F2000A021204630F0FFF8204610BD034B10B52D
:101F30000446036019F080F8204610BDD06D0308F8
:101F400010B50446FFF7F2FF1821204630F0EBF8F9
:101F5000204610BD084B10B5044640F8CC3BFFF7B7
:101F6000BDFF04F12C00FFF7CDFF04F11400FFF7D3
:101F7000DDFF204610BD00BF6C6E030808B50248A7
:101F8000FFF7E8FF08BD00BF0816002010B50446A3
:101F9000FFF7E0FF4FF41071204630F0C4F8204600
:101FA00010BD00002DE9F34101F0C2FE00240546FA
:101FB00001F0C2FE2346014622462846009421F045
:101FC0000DF8274B274A2046274D1A6002F03EFAAB
:101FD000264B274A27489A6020F068FF2B68BFF3FA
:101FE0005B8FDB0735D4284630F09FF888B3224C4E
:101FF000224B04F1E40604F1140004F12C0804F16E
:10200000CC0723606060C4F80880E760266119F09F
:1020100015F81B4B4046636119F010F8194B384610
:10202000E36219F00BF8184B04F1E000C4F8CC306F
:1020300002F082FA224604F1E001304602F072FA20
:10204000304601F0F1FF114830F004FC284630F032
:1020500078F80F4802B0BDE8F041FEF75FBF00BF5F
:1020600024700120B407002004160020D4070020AB
:10207000B80700200C000020081600206C6E030832
:10208000D06D0308046E0308386E03087D1F000836
:102090003007002070470000014819F0E0BA00BF87
:1020A0003007002070B5274E274B284C3046284D6E
:1020B0002360FFF7A1FA284626F0A2F825481FF072
:1020C00077F8254B00224FF4807124481A8683F854
:1020D00058205A6683F870205A67DC60C3E91212F0
:1020E0001F49C3E91A121F49C3E91E011E491F48AF
:1020F000C3F880101E490B604FF4F071C3E904224D
:10210000C3E90622C3E90822C3E90A22C3E90E2271
:10211000C3E91022C3E91422C3E91722C3E9016508
:102120000180144801804FF448711348018013481E
:10213000018013490A70012283F83420114A1A6081
:1021400070BD00BF60080020F43D030800160020A9
:10215000D4070020B807002030070020000001014C
:10216000010000010004C80042001400B46F012007
:10217000C06F0120BA6F0120B66F0120BC6F012033
:10218000B86F0120546C03080148FFF7EDB800BF99
:10219000600800200020704781807047C180704730
:1021A00001817047418170477047704770477047A1
:1021B000704710B4C4880368121B84885B6D091BC8
:1021C00012B25DF8044B09B218474FF6FF738381D2
:1021D0004FF0FF3303621368C36110607047002043
:1021E00070478B88838001207047704780F82610E5
:1021F000704790F82600704710B50022B1F90840EA
:10220000B1F90A10028042808480C18010BD002292
:10221000028042808280C28070470177704780EDE3
:10222000080A704780F82410704780F8251070471E
:1022300001207047983070478C3070478430704769
:102240007047704770470000034B902283F85A2371
:1022500083F85823704700BF00E100E0064AD368C6
:102260001169C3F30A03013B9BB21364536B43F040
:1022700001035363704700BF00680140024B012215
:10228000C3F8AC105A62704700680140124A5369A3
:10229000DB0370B51ED50023C2F88430BFF34F8F27
:1022A000D2F8803043F6E074C3F3C900C3F34E3371
:1022B0005B0103EA0406014646EA81750139C2F86A
:1022C0007452F9D2203B13F1200FF2D1BFF34F8F9C
:1022D000BFF36F8F70BD00BF00ED00E07047242397
:1022E00003FB0100002380F82430704780F82C1095
:1022F000704710B5044630212FF015FF204610BD61
:1023000010B504462C212FF00EFF204610BD10B54D
:102310000446BC212FF007FF204610BDF8B5044647
:10232000104629B13E4BAA213E4A3F4830F074FA8C
:1023300094F825301BB994F82630002B6ED03B4B17
:1023400000271B6893F86B20236984F826701344D8
:10235000236194F82830002B5CD0036865685B69C2
:102360009847E6692B68002E2DD031465B6A2846D7
:1023700098472B68E6692846DB6A98478642E761FA
:102380002CBF002601262B6828469B6A9847A36825
:10239000E0600133A360A169D4E904325343A26829
:1023A0004A43934238D994F82C0038B19B1AB3FBB6
:1023B000F1F2994298BF02F1FF322262012384F8C0
:1023C00028303046F8BD226A62B12846D3E9097345
:1023D0009847216A01442846B847A368226A2662C2
:1023E0001344A36094F827602B6826B19B692846A4
:1023F00098470646C7E79B6A284698472B680746D2
:102400002846DB6A9847874201D22B68EEE784F8BA
:102410002560B8E70126BEE70023D0E70126D0E714
:10242000DF440308F344030824460308C06F012077
:1024300038B5044619F0FFF823689D6E1DF04AFC7C
:1024400001462046A8472368054A2046D3F88C5009
:1024500000230449A847044B044A5A6038BD00BF12
:1024600000B80BC0000000C0081900203819002077
:1024700019F0C8B819F0D2B819F08EB819F00FBA1F
:1024800090F8252012B103685B6918477047000077
:1024900008B531B1044B4FF49271044A044830F04E
:1024A000BBF990F8250008BDDF440308694603081E
:1024B0002446030810B531B1064B4FF48F71064A1C
:1024C000064830F0A9F9406811460368BDE810409D
:1024D0001B6B1847DF44030883470308244603089F
:1024E00008B531B1044B4FF48B71044A044830F005
:1024F00093F9C06808BD00BFDF440308C148030862
:102500002446030870B5044629B1274B6F21274A9A
:10251000274830F081F9052A2BD8DFE802F003259F
:102520002B30373F406803681B69984708B3012385
:1025300084F82530002384F82630A360236194F8C2
:102540002730B3B96468236820469B6A984723689C
:1025500005462046DB6A984785420AD12368204613
:102560009B69BDE870401847002380F8253080F84B
:10257000263070BDC3610023A3602361F9E7C36106
:10258000012380F8263080F82830F4E70023012268
:1025900080F8253080F82630C261EDE7003B18BF97
:1025A000012380F82730E4E7DF440308064A0308E4
:1025B0002446030870B504460D4629B10D4B5F2132
:1025C0000D4A0E4830F028F9406811460368DB6870
:1025D0009847606803689B6A98472368E0602946CB
:1025E0005E6A20462B4684F82850B4460122BDE896
:1025F00070406047DF4403086A4B03082446030821
:1026000070B50D46044611461A462DB10D4B4F21AB
:102610000D4A0E4830F000F9406803689B689847FF
:10262000606803689B6A98472368E06029465E6A91
:1026300020462B4684F82850B4460122BDE870405D
:10264000604700BFDF440308A04C0308244603088A
:1026500008B529B1054B4121054A064830F0DCF8A0
:1026600081600161C0E9053208BD00BFDF44030895
:102670000B4E03082446030890F825201AB190F861
:10268000242002B1186070472DE9F3410446154635
:102690001F4629B1184BEA21184A194830F0BCF8F6
:1026A000406803681B69984710B3DFF85C80D8F86E
:1026B00000000368DB6A98473946064668461EF004
:1026C0005DFD68461DF06EF90E4B60681B88BDF914
:1026D0000210BDF9002003FB0122016806EB420253
:1026E000CC692946A047D8F8000003681B6B9847BF
:1026F00002B0BDE8F08100BFDF440308574F030874
:1027000024460308BA6F0120C06F012008B50346B4
:1027100090F8240030B1084B40F26D11074A084888
:1027200030F07AF8012283F8242081F83400C8863A
:102730000887086308BD00BF9E500308CE500308F9
:1027400024460308034B4FF080629A604FF080727A
:102750009A60704700E100E0084B4FF08062C3F8D8
:102760008820BFF34F8FBFF36F8F4FF08072C3F895
:102770008820BFF34F8FBFF36F8F704700E100E0F9
:10278000002370B5124E05468380124B03603368F8
:1027900093F858200AB1D86C00B998680368DB6ACE
:1027A00098473368B0FA80F4D86C640930B1036894
:1027B000DB6A9847002808BF44F001042CB9064B97
:1027C0002C21064A064830F027F8284670BD00BF85
:1027D000C06F0120806E0308E551030843520308CF
:1027E0007C52030870B5254E3568BFF35B8F15F03A
:1027F000010540D130462FF098FC00283BD0204CFA
:10280000204B04F134002561E584A562A585C4E967
:102810000035C4E902551EF0B0FF04F158001BF06A
:10282000BFFA194B2046A365184B40F8843BFFF7CD
:10283000A7FF174B1748C4F884302433C4F89050CE
:10284000C4F88C304FF4C803C4F89C50C4F8A850A6
:10285000C4E928350023C4F8AC30C4F8B030C4F85B
:10286000B430C4F8B8300C4BC4F898302FF0F2FFF5
:1028700030462FF066FC024870BD00BF48180020AB
:102880004C1800200C8A0308A06E0308186F030878
:10289000C089030845220008A08903080C490D4897
:1028A00008B5FEF7E7FF0C4B0C4A4FF080711A6039
:1028B0000122596283F82C200022C3E90122C3E9D6
:1028C0000322C3E90522DA6183F8282008BD00BF8E
:1028D000801900203819002008190020646F0308AF
:1028E000014900200AF0DABEFD110008084815234E
:1028F000084A4FF46021C0E9002300234FF440123E
:10290000C0E90233C0E904128361838305F044BF48
:10291000702800200064004008B5642009F0E6F942
:10292000FBE700007FB5184B6846184D0193184B24
:10293000184C0293184B039301238DF80030642345
:10294000ADF8023005F02EFA0A21286809F03EFAA7
:1029500008B905F095FA9DF8102020462021B2FA1A
:1029600082F2520907F086F99DF8112020464FF4B3
:102970000051B2FA82F2520907F07CF905F036FAFA
:10298000012009F0B3F9DFE74426002000260020EB
:102990007028002000240240ED28000800B54FF404
:1029A000407395B041F2883217480C93062306A96C
:1029B00006930023CDE90D330F930B931393CDE9C9
:1029C000113307F0A7FFE0B9022301224FF4800181
:1029D00004900D48CDE900331023CDE902320523E0
:1029E0006A46CDE905134FF0407306A90F9341F2F3
:1029F000883308F08FF8003818BF012015B05DF853
:102A000004FB0120FAE700BF9026002010B594B027
:102A100010220021022409A830F022FB14220021F8
:102A200002A830F01DFB1E4B192107A81A6C42F0BA
:102A300080521A641B6C1B4A03F080530093009B66
:102A4000136823F4404343F40043136013680122E6
:102A500003F440430193019B4FF48033CDE90723F6
:102A60004FF48003CDE90D434FF4A873CDE90F1364
:102A70000723CDE91144139308F0DEF80F2300205B
:102A80000521CDE902344FF4A053CDE904034FF4FE
:102A9000805302A8069308F0C1FA14B010BD00BF1D
:102AA000003802400070004038B50D4A00250D4C3A
:102AB0000D4B20462562C4E900230123C4E90455D7
:102AC000C4E90253C4E9065507F021FA2946204615
:102AD00007F031FC29462046BDE8384007F051BCDC
:102AE0000060004084270020F7A3A0002DE9804863
:102AF000BBB01022002101242CA81C2630F0B0FA13
:102B0000032506F001FA4FF00050CD4B40F20117BB
:102B1000ADF8B040CDE92D03CA4B2CA82F9306F099
:102B200011FA4FF010438DF8B14000242CA82D93DA
:102B30008DF8B8608DF8BB40ADF8BE4006F002FAE3
:102B400002232CA88DF8BB508DF8B1301923ADF8B5
:102B5000BE708DF8B83006F0F5F94FF040432CA860
:102B60008DF8B86004262D938DF8B1508DF8BB40D8
:102B7000ADF8BE4006F0E6F917232CA88DF8B16039
:102B80008DF8B8308DF8BB50ADF8BE7006F0DAF9AC
:102B9000304606F0C7F9BFF34F8FBFF36F8FAA4AD5
:102BA000C2F85042BFF34F8FBFF36F8F536943F4A6
:102BB00000335361BFF34F8FBFF36F8FC2F8844070
:102BC000BFF34F8FD2F8803043F6E074C3F3C900EF
:102BD000C3F34E335B0103EA0406014646EA8175FE
:102BE0000139C2F86052F9D2203B13F1200FF2D123
:102BF000BFF34F8F536943F480335361BFF34F8F5B
:102C0000BFF36F8F05F092FD0024FFF7FFFE142243
:102C100000212CA830F024FA8C4B42F222018C487F
:102C20001A6B01254FF400474FF4005642F0100292
:102C30004FF0030B4FF002084FF0040A1A634FF4F1
:102C400080491A6B02F010020392039A1A6B42F049
:102C500002021A631A6B02F002020492049A1A6BBF
:102C600042F040021A631A6B02F040020592059A84
:102C70001A6B42F400721A631A6B02F40072069225
:102C8000069A1A6B42F008021A631A6B02F00802E5
:102C90000792079A1A6B42F004021A631A6B02F049
:102CA00004020892089A1A6B42F480721A631A6B33
:102CB00002F480720992099A1A6B42F020021A6398
:102CC0001A6B02F020020A920A9A1A6B42F08002F2
:102CD0001A6300221B6B03F080030B930B9B06F01F
:102CE000C9FF01224FF40041594806F0C3FF0022FA
:102CF000C021584806F0BEFF00224021564806F089
:102D0000B9FF42F220032CA95148CDE92C35CDE979
:102D10002E4406F0C5FE2CA94D48CDE92C75CDE911
:102D20002E5506F0BDFE4FF404132CA94B482E94EB
:102D3000CDE92C6306F0B4FEC0232CA945482E949F
:102D4000CDF8BCB0CDE92C3506F0AAFE40232CA965
:102D50004148CDE92C35CDE92E4B06F0A1FE2CA93A
:102D60003B48CDE92C85CDE92E4B06F099FE224655
:102D70000521282006F076F8282006F0A5F8394627
:102D80002246334806F076FF142005F0F3FC39465E
:102D90002A462F4806F06EFF0A2005F0EBFC24229D
:102DA000214615A80E9430F05BF9182221460FA891
:102DB0002B4F30F055F9342221462CA830F050F931
:102DC0002C2221461EA830F04BF9264B64220CA978
:102DD0003846C7E900340523C7E902A5CDE90C232D
:102DE00006F0D2FA15A938461D94CDE91554CDE95F
:102DF0001744CDE91944CDE91B4406F031FD1C21EF
:102E000021230F20CDE90F1319230FA9CDE91103B9
:102E10003846CDE9134406F0E6FC5146384606F044
:102E2000D1FC42F21071384606F024FE4FF4807156
:102E3000384606F046FA4FF4807C4FF4007313E0F6
:102E4000120000030100010100ED00E00038024023
:102E5000002402400008024000140240002002400A
:102E6000D8270020006C01404FF4806E4FF40032F0
:102E70004FF400213846CDF8E080CDE92CC34FF463
:102E80000063CDE92EE34FF48053CDE930364FF4A3
:102E90008033CC4ECDE932934FF480234FF01009AC
:102EA000CDE934234FF08073CDE936132CA906F019
:102EB00055FC4FF4F0731EA938462895CDE920390A
:102EC000CDE91E44CDE9224ACDE92484CDE926444A
:102ED00006F0D2FB2146384606F0BDFB21463422DF
:102EE0001EA830F0BDF8B84A4FF4F17040F2E31C70
:102EF000C6F82080B48686F83640C6E9002440F241
:102F00002232C6E9090240F223323046C6E90BC23A
:102F1000C6E90244C6E90445C6E9065807F0D4FAF2
:102F2000FF214FF4806E4FF448724FF4F073304637
:102F300029921E94ADF8A8408DF8AA40CDE923143B
:102F40000521CDE92128CDE925E122461EA9CDE9BB
:102F50001F34CDE9274307F083FB32683846936975
:102F600023F00103936106F0E1FC2146404605F0A1
:102F700075F92823152221463846009406F009FDEC
:102F80002CA9384636944FF44077CDE92C44CDE94E
:102F90002E44CDE93044CDE93244CDE9344406F045
:102FA000DDFB3268894E4FF40061936930462B4354
:102FB00093612022864BB462CDF8B080C6E900341C
:102FC0004023C6E904234FF4C073C6E906344FF426
:102FD0008053C6E9081307232CA9CDE92D3ACDE982
:102FE0002F38C6E9024ACDE9318B08F091FB4FF644
:102FF000FF721EA930460F94CDE91E59CDE9205429
:1030000008F0A6FB284605F0B5FB4FF6FF721EA997
:103010003046CDE91E89CDE9205408F099FB0823FC
:103020004FF6FF721EA93046CDE92034CDE91EB916
:1030300008F08EFB4FF40C734FF6FF721EA90F932E
:1030400030460F9B20952193CDE91EA908F080FB07
:1030500040F22A7130465F4E08F099FB43F2D202EB
:103060004FF0204330461A6003F580533462C6E9BE
:1030700000351923C6E90299C6E90437C6E90644B2
:1030800007F0F6FB3297662741F288322CA93046CA
:103090002C97359431943994CDE93344CDE93744B4
:1030A00007F038FC002840F0BA80992441F28832B9
:1030B0002CA930462C9407F02DFC002840F0AF805E
:1030C0004FF4807341F288322CA9304632932C970A
:1030D00007F020FC002840F0A28041F288322CA9A1
:1030E00030462C9407F016FC0446002840F09780E8
:1030F0004FF47A7005F03EFB4FF480031EAA2CA912
:1031000023934FF480733046CDF88090329305239B
:103110002C934FF08073359341F28833CDE91E45EF
:10312000CDE9215407F0F6FC002878D14FF48073E4
:10313000319041F288322CA9329305232C934FF021
:103140008073CDE93300CDE93650CDE93800304603
:10315000359307F0DFFB002861D141F2883215A9D1
:10316000304607F077FC002859D14FF48073359032
:10317000319041F288323293062339902CA92C9356
:10318000CDE93300CDE93700304607F0C3FB002816
:1031900045D100232C4621954FF0807522934FF4A2
:1031A00080031EAA2CA9239305233046CDF88090D6
:1031B0002C9341F288333595CDE91E8807F0AAFC9F
:1031C00068BB09E0DC2600200068014010260020D2
:1031D000400100A0902600204FF48073319041F20E
:1031E00088322CA932939DF854302C9443F040033C
:1031F0003595CDE93300CDE93640CDE9380030468C
:103200008DF8543007F086FB48B941F2883215A991
:10321000304607F0C3FB10B9282005F0ABFA4FF495
:10322000807341F288322CA9B748329335232C930E
:103230000023CDE93333359331933993CDE93733D7
:1032400007F068FBE0B941234FF040094FF0010A55
:1032500022901EAA2CA9AC48CDE91E931023CDE9DB
:10326000203A4FF4800323934FF4407332930523A5
:103270002C934FF04073359341F2883307F04AFCAA
:10328000B7234FF440741E93002324942793239371
:103290002B93CDE92533CDE92933FFF77FFB18BB0D
:1032A00041F288321EA9984807F034FBE0B90523A3
:1032B0003190399015AA2C934FF0407315902CA99A
:1032C0003593012332941693CDE9183010231793C8
:1032D0004FF48003CDE93300CDE937001A9341F272
:1032E0008833894807F016FC05234FF440764FF0E9
:1032F000407401252C93002341F288322CA9824886
:10330000329635943193CDE93333CDE93653CDE957
:10331000383307F0FFFA00284FD141F288321EA956
:10332000794807F097FB002847D11523319041F2E7
:1033300088322CA932962C933594CDE93300CDE90F
:103340003650CDE93800704807F0E4FAA8BB41F2E6
:1033500088320DF179016C4807F07CFB68BBFFF700
:103360001DFB50BB0223C02232962C953594319020
:10337000CDE93300CDE93630CDE9380092FAA2F23A
:1033800003219DF87930B2FA82F25F4803F03F03DF
:1033900001FA02F22CA9134341F288328DF87930F8
:1033A00007F0B8FA48B941F288321EA9564807F02A
:1033B000F5FA10B9282005F0DDF905234FF4407621
:1033C0004FF0407401252C93002341F288322CA940
:1033D0004D48329635943193CDE93333CDE93653A8
:1033E000CDE9383307F096FA00284BD141F2883204
:1033F0001EA9454807F02EFB002843D11523319024
:1034000041F288322CA932962C933594CDE93300C1
:10341000CDE93650CDE938003B4807F07BFA88BB50
:1034200041F288320DF17901374807F013FB48BBB0
:10343000FFF7B4FA30BB0223072232962C9535945D
:103440003190CDE93300CDE93630CDE9380092FA3C
:10345000A2F206219DF87930B2FA82F22A4823F0CE
:10346000070301FA02F22CA9134341F288328DF8C6
:10347000793007F04FFA28B941F288321EA9224864
:1034800007F08CFA4FF4407300241EAA1F4D3293AC
:10349000EC232CA91C482C934FF4406339943393AC
:1034A0004FF440531A4E2F934FF04073CDE93443FD
:1034B0000A23CDE937443193CDE91E4407F07BFB65
:1034C000144B2846C5E90034C5E90244C5E90E4459
:1034D000C5E91044C5E9124405F0C1FD01212846A3
:1034E000012505F07DFEFFF7DFFAFDF7CCFA0A486B
:1034F0000A4B848003600562C0E9054405F04EFD77
:10350000FFF7F4F90CE000BF90260020F42700201C
:103510000020004000B002404C2800200030024053
:103520001A48532384608461C0E900634FF47A73BE
:10353000C0E9033408F096FAFDF7A7FAFDF7A4FAFC
:10354000134B186804F02EFC08F046FB2246214677
:10355000284608F0E3FB0F4B0F4A214618600F483E
:1035600008F074FB0E4B0F4A214618600E4808F015
:103570006DFB0E4B0E4A214618600E4808F066FBA4
:103580000D4B186008F042FBFEE700BF4426002008
:10359000A829002000260020E46F0308192900084C
:1035A0000C260020C06F0308990A00080826002096
:1035B0009C6F0308252900080426002005F0DAB8CE
:1035C0000128034607B50AD84B781522084800930E
:1035D0000B78002106F0DDF903B05DF804FB0191E2
:1035E0000A5C002102480092392206F0E3F9F3E771
:1035F000D82700200268094B9A4210B5044601D131
:1036000005F0A6F8064B1B685B68A34205D1054B85
:10361000BDE81040186808F015BC10BD001000404F
:10362000A829002000260020704700000D4B82B022
:103630000F216FF001001A6C42F080521A641A6C6C
:1036400002F080520092009A5A6C42F480425A640E
:1036500000225B6C03F480430193019B02B005F0F0
:1036600001BC00BF0038024010B588B004461422E7
:10367000002103A82FF0F4FC2268234B9A4240D18A
:1036800003F5EA33032121481A6C42F000721A64F0
:103690001A6C02F000720192019A1A6B42F0020257
:1036A0001A634FF440721B6B03F002030293029BF8
:1036B0000223CDE903230923CDE9061303A906F06C
:1036C000EFF900220521132005F0CCFB132005F0B3
:1036D000FBFB00220521142005F0C4FB142005F09B
:1036E000F3FB00220521152005F0BCFB152005F099
:1036F000EBFB16200022052105F0B4FB162005F097
:10370000E3FB08B010BD00BF0064004000040240AD
:10371000026882B0084B9A420BD1D3F8302803F5E7
:10372000006342F480521A631B6B03F480530193CD
:10373000019B02B0704700BF003002400E4B07B53E
:1037400002689A4215D1A3F5F04305215A201A6B5D
:1037500042F400021A6300221B6B03F4000301937E
:10376000019B05F07FFB5A2003B05DF804EB05F0E8
:10377000ABBB03B05DF804FB00B0024010B588B0ED
:1037800004461422002103A82FF06AFC2268154B7E
:103790009A4225D103F54C4303A913485A6C42F0D1
:1037A00000625A645A6C02F000620192019A1A6B2C
:1037B00042F400721A6304221B6B03F40073029339
:1037C000029B0223CDE903230D23079306F068F93A
:1037D00062200022052105F045FB622005F074FB04
:1037E00008B010BD006C014000240240F0B5ADB03F
:1037F00004461422002103A82FF032FC902200215D
:1038000008A82FF02DFC2268254B9A4246D14FF490
:10381000003308A8089307F0CDFC08B1FFF704FFB8
:10382000204C122701260325236B03A91E4843F0D1
:1038300002032363236B03F002030093009B236BBB
:1038400043F008032363236B03F008030193019BF8
:103850008023CDE903370B23CDE90565079306F0F7
:103860001FF94FF4805303A91048CDE9033704230F
:10387000CDE90565079306F013F9236C5F2000225C
:10388000052143F080732364236C03F0807302935B
:10389000029B05F0E7FA5F2005F016FB2DB0F0BDA6
:1038A000006000400038024000040240000C02406A
:1038B00010B5A6B004469022002102A82FF0D0FB3C
:1038C0002268134B9A4220D1082302A80293C023F6
:1038D00007930223CDE9083301230C9307F06AFC18
:1038E00008B1FFF7A1FE0B4B582003215A6C42F0A0
:1038F00080625A6400225B6C03F080630193019B39
:1039000005F0B0FA582005F0DFFA26B010BD00BF70
:103910000068014000380240142200212DE9F041E6
:103920008AB004460DEB02002FF09AFB22683A4B56
:103930009A426ED1394B0225032409269A694FF029
:10394000040805A9364842F0020200279A619A69E4
:1039500022F002029A619A6B42F002029A639A6B19
:1039600002F002020092009A1A6B42F010021A63EF
:103970001A6B02F010020192019A1A6B42F00202D5
:103980001A631A6B02F002020292029A1A6B42F058
:1039900004021A631A6B02F004020392039A1A6B70
:1039A00042F008021A631B6B03F008030493049BA4
:1039B000CDE90585CDE9084606F072F8402305A952
:1039C0001848CDE905350123CDE907340A230993C9
:1039D00006F066F84FF4C06305A913480996CDE9CF
:1039E0000535CDE9077406F05BF805A90D48099681
:1039F000CDE90585CDE9077406F052F84FF4005380
:103A000005A90A480996CDE90535CDE9077406F000
:103A100047F80AB0BDE8F081001000A0003802406D
:103A2000001002400004024000080240000C024066
:103A30000E4B07B502689A4215D103F506330521EE
:103A40002D201A6C42F480721A6400221B6C03F45D
:103A500080730193019B05F005FA2D2003B05DF8FA
:103A600004EB05F031BA03B05DF804FB0020004020
:103A7000F0B5002387B003932A4B1E68002E4FD168
:103A80000122022703250C241A6001A9264B27488E
:103A90009A6B42F001029A639B6B03F0010300935F
:103AA000009B4FF68373CDE90454CDE9013705F04F
:103AB000F7FF48F2331301A91D480594CDE90137FA
:103AC000CDE9036505F0ECFF4CF2037301A9194839
:103AD0000594CDE90137CDE9036505F0E1FF40F23A
:103AE000FF6301A914480594CDE90137CDE90365C9
:103AF00005F0D6FF4FF63F0301A910480594CDE924
:103B00000137CDE9036505F0CBFF4FF62C7301A912
:103B10000B480594CDE90137CDE9036505F0C0FFF9
:103B200007B0F0BD98280020003802400010024085
:103B300000180240000C0240002002400014024025
:103B4000001C0240214B1A6C42F0100270B588B084
:103B50001A641B6C054601A903A803F01003029325
:103B6000029B07F009FB069B4BBB07F0F5FA184ECA
:103B7000184B336040F2E733F360174BB0FBF3F3BD
:103B8000013B3046736000233361B360B36107F0DB
:103B900069FF044680B9304607F012FE044658B962
:103BA000362005F091F90F2D0DD8224629463620F2
:103BB00005F058F9094B1D60204608B070BD07F0AC
:103BC000CBFA4000D3E70124F6E700BF00380240FB
:103BD0009C2800200010004040420F00E00300201D
:103BE0007047FEE7FEE7FEE7FEE77047014805F095
:103BF00023B800BF70280020FFF7F8BFFFF7F6BF1B
:103C0000FFF7F4BF4FF4005006F042B8014807F048
:103C100031BE00BF44260020014807F02BBE00BF84
:103C20009C280020014806F0BEBC00BFDC26002016
:103C3000014805F04ABA00BFF4270020014806F009
:103C400073BB00BF84270020014805F092BC00BF71
:103C5000D82700200120704708B52FF0B5FA1623A9
:103C600003604FF0FF3008BD08B52FF0ADFA162302
:103C70000360FEE770B50D4614460E46731B9C426A
:103C800001DC204670BDAFF3008006F8010BF5E7BC
:103C900070B50D4614460E46731B9C4201DC20464F
:103CA00070BD16F8010BAFF30080F5E74FF0FF3061
:103CB00070474FF4005300204B607047012070475D
:103CC000002070470A4A116808B5034609B9094936
:103CD00011601068694603448B4206D92FF074FACC
:103CE0000C2303604FF0FF3008BD1360FCE700BFFA
:103CF000E8280020007D0120704710B5044604210B
:103D00002EF011FA204610BD012908B506D002296F
:103D100008D059B900F0D8FB006808BD00F0D4FB0A
:103D20004068FAE700F0D0FB8068F6E70020F4E78F
:103D3000004870471C7003080120704713B5002429
:103D400051B1036801AA01948DF803409C680DF1FC
:103D50000303A04702B010BD0846FBE7C0897047C7
:103D6000008A7047C088704780887047807A00F06A
:103D70007F007047807AC0097047002070470000BC
:103D80009FED010A704700BF0000000070477047B8
:103D900000F598730868496803C370477047704717
:103DA0004160704770477047064BC0F84801C0F843
:103DB0004C310023C0F8503100F5A273C0F84031F7
:103DC000704700BF693E00080123037270477047C7
:103DD00010B441680346C2689B68541001EB62004E
:103DE000D20748BF0A595DF8044B48BFD35818475B
:103DF0000346406830B19A681AB9D86800F00100EB
:103E000070470120704710B504460C212EF08BF945
:103E1000204610BD10B5044610212EF084F920462E
:103E200010BD10B504464FF4AE712EF07CF920465B
:103E300010BD10B51BF04EFF0368BDE81040DB6BF2
:103E4000184710B50446D0F8400158B10368DB6844
:103E5000984738B1D4F8400103689B68984700231D
:103E6000C4F8403110BD00002DE9F14FD0E9556A8A
:103E70000746B06803681B6A9847972805D8444BE3
:103E8000A321444A44482EF0C7FC706803681B6AAB
:103E900098470F2803D8414BA4213E4AF2E7F06827
:103EA00003681B6A98470B2803D83D4BA521394A64
:103EB000E8E7DFF8F4901BF00DFF04301BF02FFF54
:103EC000D9F8000010B10368DB689847D9F8000002
:103ED00010B103681B689847DFF8D080D8F800005D
:103EE00010B103685B699847D7F83C0110B10368CB
:103EF0005B689847D8F8000010B103681B689847C2
:103F0000D7F83C0110B103689B689847F06800211E
:103F10004FF0000B03685B6A9847224B0446C0F8D9
:103F200004B080F808B059460360B06803685B6A63
:103F30009847054600F032FB7068594603685B6A93
:103F400098470646294600F009FB331DC7F83C6137
:103F50002846C9F80040C8F80050CAF800302B685D
:103F6000C6F808A0DB68EE639847336830461B68E4
:103F70009847214628461EF063F8236820461B69AF
:103F80009847236820465B6901B0BDE8F04F1847A9
:103F9000FF5203088D5303085F540308A654030817
:103FA00049550308A470030808700120047001201B
:103FB000044B1B6893F858200AB1D86C00B9986874
:103FC000704700BFC06F012070B504460D4616460D
:103FD0001BF046FF104A0023012114600F4A2260A3
:103FE0000F4AC4E95333C4E95123C4E94F330D4B9D
:103FF00018680368C4E955659B689847FFF7D8FFC0
:1040000025F0A9FFFFF7D4FF26F020F8FFF7D0FF37
:1040100026F028F8204670BD147001205070030867
:1040200038700308C06F0120064BC0F84801C0F883
:104030004C310023C0F8503100F5A273C0F8403174
:10404000704700BF693E0008406A7047806A704749
:1040500070470B888A889BB2D20A10B54C88C16918
:1040600043EA044351F82200184410BD10B5044639
:10407000BAB1107B68B1537BD27A1B0203F4E063C0
:104080001A43236A03EB82031A888A4202D193F906
:10409000020010BD05D80138043380B20028F3D1E6
:1040A000F7E70020F5E710B504462C212EF03BF889
:1040B000204610BD30B58BB00446BDF86050089561
:1040C000BDF85C5007959DF8505006959DF84C50F2
:1040D00005959DF8485004959DF8445003959DF82A
:1040E000405002959DF83C500195BDF83850009520
:1040F0001DF000FC064B20462360159BE361169BD8
:104100002362199B63621A9BA3620BB030BD00BF90
:10411000C870030870477047704770477047704712
:10412000704710B5044698212DF0FDFF204610BDC4
:10413000036870B504461B6B1546984723682046F4
:1041400029465B6BBDE87040184700002DE9F3413C
:1041500004461DF0C9FD2E4B00254FF4807204F17A
:104160006C06236004F140072A4B01A9A4F86420DF
:104170003046A4F8902004F10408274AE563E2667B
:104180002566A566C4E91035FF2384F866304FF62E
:10419000FF73C4E91255A4F8923084F89430ADF856
:1041A0000430C4E91455C4E91655C4E91C55C4E9E2
:1041B0001E55C4E92055C4E9225519F04CFE2A4683
:1041C00029463846FFF7B4FF38464FF4F071FDF743
:1041D000E7FF38464FF44871FDF7E4FF4FF07F43A7
:1041E00039464046A36616F03DFF2A46294630462A
:1041F000FFF79EFF01A93046ADF8045019F02BFEE1
:104200004046314616F02EFF204602B0BDE8F08150
:1042100030710308D08A0308388B03087047000008
:1042200030B5164D8FB02C68BFF35B8F14F00104CE
:1042300020D128462DF079FFE0B13F23012210491B
:104240000993104B10480893104B0A940594CDE93C
:1042500006430423CDE903320A23CDE90B4400933E
:10426000CDE90144FFF726FF09482EF0F3FA28466E
:104270002DF067FF04480FB030BD00BFEC280020D0
:1042800078B90B9074910308F028002080910308FE
:104290001D4200087047000030B5164D8FB02C68E5
:1042A000BFF35B8F14F0010420D128462DF03DFFB1
:1042B000E0B13F23012210490993104B10480893A5
:1042C000104B0A940594CDE906430423CDE903324B
:1042D0001423CDE90B440093CDE90144FFF7EAFE36
:1042E00009482EF0B7FA28462DF02BFF04480FB0EE
:1042F00030BD00BF1C29002088B90B9078910308BD
:10430000202900208491030895420008704700008E
:1043100030B5164D8FB02C68BFF35B8F14F00104DD
:1043200020D128462DF001FFE0B13F2301221049A2
:104330000993104B10480893104B0A940594CDE94B
:1043400006430423CDE903322823CDE90B4400932F
:10435000CDE90144FFF7AEFE09482EF07BFA28466E
:104360002DF0EFFE04480FB030BD00BF4C290020F7
:1043700098B90B907C91030850290020889103087C
:104380000D43000800207047002070470EB403B5AD
:1043900003AB002153F8042B01931CF029FD02B05C
:1043A0005DF804EB03B070470CB407B504AB53F8E9
:1043B000042B01931CF01CFD03B05DF804EB02B06C
:1043C00070470000436C10B5044673B3038F2BB9DC
:1043D000184BC521184A19482EF01EFAC38E00EB5F
:1043E00043035B8C0BB31EF025FB238F012B03D8FB
:1043F000134BCB21134AEEE7E28E40F63F10531CDD
:104400009BB2092B194688BFA3F10A0104EB4101B5
:10441000498C814209D10A2B04EB420228BF0023B8
:10442000508C04EB4303588451842046BDE810406F
:104430001EF002BAEC550308F5550308A056030810
:10444000EA560308F85603081EF0BFB938B518BB82
:10445000124B13481C681349B4B12268224402600D
:10446000626822440A60A26814440F4B00221A803A
:1044700000F02AF8054600F025F80C4B1C600C4BA8
:104480001D600C4B188007E00B4B03600B4B0B605F
:104490000B4B1C68002CE8D138BD00BF88290020D8
:1044A000802900207C290020842900201870012008
:1044B000207001201C700120ACB90B90A8B90B90A2
:1044C000B0B90B9000207047004870478C2900203D
:1044D00010B5054CFFF7E0FE2060FFF719FF6060A4
:1044E000FFF79EFEA06010BD8C29002010B50024AF
:1044F00004600C6014601C6010BD704710B5044669
:104500004FF4AE712DF00FFE204610BD10B50446DD
:10451000D0F8580100F013F82046BDE810401BF019
:104520005BBC000010B50446FFF74EFD014B204672
:10453000236010BD64710308002202607047704759
:10454000704704387047704710B5044610212DF0AD
:10455000EAFD204610BDA0F10400F5E70022C1608D
:104560008260024A0260183242607047B8710308E4
:1045700070470000034B10B504460360FFF7CFFD02
:10458000204610BDE071030810B50446FFF7F2FFA6
:10459000982120462DF0C7FD204610BD10B50446D9
:1045A000FFF7D4FD014B2046236010BDE0710308E6
:1045B000FFF7B6BD30B520B319B313B3032A02D841
:1045C000047DF4B9EAB14468257F012D19D9007D35
:1045D00094F8202020B90A70012200201A6030BD12
:1045E000904210D8627F121A90B2002A07DA28444B
:1045F00002B2A06950F832200A600422EDE7A84216
:10460000F7D30920EBE71920E9E710B5044660B1BC
:10461000007D50B949B1012A07D133B1087830B9CA
:10462000616881F820001A6010BD0920FCE70F20A6
:10463000FAE710B5044698B1007D88B981B1032A24
:104640000ED96BB16268546A92F82820B4FA84F4E7
:104650008032640942EAC4720A6004221A6010BD02
:104660000920FCE72DE9F04F85B00D461746994625
:104670009DF838B00446DDF83C809DF848A0139EB4
:1046800020B94FF0FF3005B0BDE8F08F002AF8D018
:1046900013B9BBF1010FF4D8B8F1000FF1D0002D20
:1046A000EFD04FFA8AF3002BEBDD119B002BE8D003
:1046B0005822002120462EF0D3FC00230122384648
:1046C0001946656100F03EFDE06030B916B96FF043
:1046D0000B00D8E73B883360F9E70123002103AAE8
:1046E00001704046C4F8189084F81CB0009304236D
:1046F00000F0E2FC00282CD11B4B039A1340002B46
:104700002FD1039B002624630AF18002DB43BDF80E
:1047100040102846DB0F6362144B6363144BA363A2
:1047200004F13003C8F80830082384F828A0CDE944
:104730000036334603F0C9FCE0620028A1D00D4BDF
:1047400030462464403463600B4BA360119B9C6033
:1047500099E7002EBBD0B8F8003033600028D0D0E5
:10476000B5E7002ECDD0F6E700F8FF7F334600080E
:104770000B4F0008B54500080B460008F0B4049E36
:104780000D4698B14F2A4FF001044FEAD20791BF6E
:1047900002F00701052716464FF4C24398BF8C402C
:1047A000C15D98BFE4B2214015B121B1F0BC7047A2
:1047B0000029FBD02B464169EFF3108CC1F830C0C3
:1047C00072B6C15DE5B12143C155047F012C0AD900
:1047D000457F877F691CC9B28C4298BF00218F42F8
:1047E00011D10123C37743691B6B83F31088036DD9
:1047F000002BDBD0426A002AD8D0406DF0BC1847AD
:1048000021EA0401E0E7876943EA0263013C07EB20
:10481000C50C47F83530CCF8046090F8203041776B
:10482000A3423CBF013380F82030DCE743692DE927
:10483000F3415D8A0446068A8846AE4258D06E40EF
:1048400040F2011305821E420AD01D424FF00102C0
:104850004FF0000314BF114619460093FFF78EFF77
:10486000B30709D500230722C5F340012046009372
:1048700048F22013FFF782FF770709D500231222A1
:10488000C5F380012046009348F24013FFF776FFFE
:10489000300709D500231422C5F3C0012046009338
:1048A00048F21013FFF76AFF310609D500231522DD
:1048B000C5F3C011204600934FF40143FFF75EFF9C
:1048C000B20509D500230622C5F3402120460093F6
:1048D00048F22013FFF752FF330509D500231322B6
:1048E000C5F3C0212046009348F21013FFF746FF9E
:1048F00067796388003F18BF01270BB147F01007A5
:1049000023890BB147F08007E3681F70B8F1000FEF
:1049100032D0237F012B2FD9E26AA57F16695EBBB7
:10492000637FAB4228D0A36929B253F8310003EB6F
:10493000C50C40EA074043F8310053F83130C2F863
:104940000530DCF80430C2F80930E16A606903F030
:10495000D9FB6A1C237FD2B2E17F934298BF002229
:104960000129A2770BD102232022E3774FF4805351
:1049700000962046FFF702FF02B0BDE8F081022951
:10498000FAD1637F9342F7D1E6773346202231464E
:104990000096EEE7F0B5044685B0002841D090F8C7
:1049A00008E08E453DD9D0F804C09BB192B10025F6
:1049B00066462846EFB2B94206D0B76827B13778C5
:1049C000974208BF6FF00B0001351836EFB2BE45B5
:1049D000F0D800BB01EB41050CEBC5000CF835200D
:1049E0004FF47A756B43FF25457000258360C560E1
:1049F0009AB193B102F5E06201238370A38B19444D
:104A0000094BCDE90103002389B2009340F2FF7303
:104A1000A06903F032FB05B0F0BD002385601A46A3
:104A2000EBE74FF0FF30F6E7794A00082DE9F04157
:104A3000044616461F460D46C9B1017DB9B140680E
:104A4000037A8B4213D3042A11D187B12A68013922
:104A500093B2C2F30742C9B2FFF79CFF50B93B467D
:104A6000324629462046BDE8F04100F04EBA092002
:104A7000BDE8F0810820FBE70B79012B06D14A79CC
:104A8000C360036942700BB140691847704700006A
:104A90002DE9FF470F9E8846174699460446DDE9F3
:104AA0000C5A002850D000294ED0002A4CD0002D9E
:104AB0004AD0BAF1000F47D02822002108302EF04A
:104AC000CFFABDF83830C4F818A0A383C4E9008732
:104AD000AB780027013B4B4528BF4B464FF00109FF
:104AE0002372237ABB4208D8194B00202462203459
:104AF0006360184BA360AC6011E007F10108042368
:104B000003AA28465FFA88F8CDF80090414600F0E5
:104B1000D3FA38B10EB12B8833606FF00B0004B0BC
:104B2000BDE8F087039A3946204693B2C2F30742A4
:104B3000FFF730FF08B94746D3E70EB12B88336043
:104B400010F10C0FF7D0EAE74FF0FF30E7E700BFB6
:104B5000BD4E00082D4A00082DE9F04F85B00546EE
:104B6000924643690391002976D0002B6ED1002232
:104B7000297A1820FF2416460127D3B299426FD80C
:104B8000002637463BE018236C6803FB0844A378F3
:104B900073B3E268002A50D094F90120002A46D16C
:104BA000022B08D1CDF8008048F230131C220121DD
:104BB0002868FFF7E3FD0123A3705346C4F80CB047
:104BC000A278022A3BD162681344A26893426360D0
:104BD00036D348F23013CDF800801B22012128681B
:104BE0000026FFF7CBFDFF23374663700323A37036
:104BF00009F101092B7A5FFA89F84345C3D8EC68BB
:104C000074B96FB123461B22214600942868FFF730
:104C1000B5FD009423461C2221462868FFF7AEFD0F
:104C2000039BC5E903766B6105B0BDE8F08F0223F5
:104C3000C4F804B0A3700023C0E75346C0E70027C0
:104C400094F90130052B18BF0026D1E74FF0000979
:104C50000126CB463746CDE7002B88D1012690E7C9
:104C60006B6800FB023393F802C05C70DE60BCF13D
:104C7000000F00D09F7001327FE74A798B79097964
:104C8000022908D113B1C178994204D1C36A827054
:104C90000BB1006B18477047F0B490B190F814C096
:104CA000BCF1000F0DD161B1022A0AD14BB10C88C1
:104CB0004FF47A7546686C43C6E9024CF0BC00F0CC
:104CC00024B90920F0BC70472DE9F04786B00D46A5
:104CD00016469A46DDF840800446139FDDF858904A
:104CE00000285FD000295DD0002A5BD0B8F1000F0A
:104CF00058D0002F56D0342200212EF0B1F9BDF843
:104D0000383026624FF47A76A3800DF11602BDF892
:104D10003C30002184F803A028467343E36001235C
:104D20000093022300F0C8F950B1B9F1000F02D08E
:104D30002B88C9F800306FF00B0006B0BDE8F08793
:104D40001A4A4046BDF816306261194A734324611D
:104D5000A26104F11002A360AA60E268BDF84410E9
:104D60009342BDF8482038BFE360124BCDE90143C0
:104D70000023009340F2FF7303F07FF90028DCD199
:104D800001236762BDF85420019000930346BDF8EB
:104D90005010384603F099F9A062B0FA80F040094B
:104DA0004042CAE74FF0FF30C7E700BFBD4E0008E2
:104DB000994C00087B4C0008F8B5C368044690F98C
:104DC00000500E4693428CBF9A1A0022C26035B141
:104DD00083688BB11AB190F90130AB420CD0A16A53
:104DE0004D71606A03F08EF9002D41D1A38813F450
:104DF000807F14BF05257F25A078657050B180287D
:104E000040D038D8012840D002284FF000003FD0D1
:104E10000023A370A788236A07F4805E002B3BD091
:104E2000DA789978C2F3C00CC2F30012C1F38001A2
:104E3000BEF1000F34D05CEA010C18BF012207F468
:104E4000005113B1DB6803B11B7859B33B4214BF67
:104E500001230023052D27D152EA030124D017F4A2
:104E6000804F14BF04257F25257006B13570F8BD2D
:104E7000A368E360C0E781280CD0A0F182077842E4
:104E80007841C5E700207F25C2E700200525BFE760
:104E90000425BDE70220BBE701218C460A46C7E78F
:104EA0007246CCE70B46D5E73904DDD57F2DDBD143
:104EB000134308BF0525D7E702207047F8B506461B
:104EC0001F460846FEB1F1B1EBB13168B568C1B11A
:104ED000F4683CB9954207D82A462EF0A2F93D6005
:104EE0002046F8BDAC420ED22D1B2144AA4237BF4A
:104EF000A41800241546F46034BF4FF0FF34F4606A
:104F0000EAE70E24ECE70924EAE7F8B515461F4660
:104F1000024608B301B3FBB186680068D0B1D4681B
:104F20002CB9AE4205D8B54218D8002409E0B442E5
:104F300012D2361B2044B54209D22C44D4604FF023
:104F4000FF342A462EF06DF93D602046F8BD00235F
:104F5000D360E8E70E24F8E70924F6E70C24F4E729
:104F600002207047F0B5044650B3008878B101388C
:104F700000224FF00C0E86B2B24209D320D10C238E
:104F80005A43636898189B5A8B4218BF0020F0BDA3
:104F90009319D4F804C05D10C3F34F030EFB05F75B
:104FA0000CEB07003CF807708F42F0D003D92DB10D
:104FB000013B9EB2E0E701339AB2DDE72A46DEE725
:104FC0000020E4E7F0B5054600285ED04468002CD8
:104FD0005BD042B1C07800F00F00022824D0032833
:104FE00003D0012808D009201DE0AF780026F0B2D8
:104FF00087422FD80E2016E00029FBD120791074AB
:1050000020681060A0689060A86808B1002B2ED0BE
:105010001F4B93611F4BD3610023002053602B88EB
:10502000D06053821175F0BDA8788842E2D929B9C1
:10503000207A1074206810600120E4E7607A107410
:10504000606820B14E1E2769F6B207FB06001060AB
:10505000E068D8E7204601360C3490F804C08C454F
:10506000C5D144791474046880681460CBE7436840
:10507000094C002B08BF2346084C93618368002B22
:1050800008BF2346D3610368C7E70520CBE700BF0D
:10509000BD4E00080B4F0008B94E0008614F0008D4
:1050A000C3B2192B9ABF024B53F820000148704736
:1050B0000C72030847000406F0B506468BB00F4695
:1050C0001D461446BAB12022002102A82DF0C8FFC7
:1050D000002302AA394601933046109BFFF772FF66
:1050E00038B9049AAA4208D1214601AB02A8089C0B
:1050F000A0470BB0F0BD0920FBE70B20F9E7F0B5A6
:1051000006468BB00F461D461446BAB12022002138
:1051100002A82DF0A5FF002302AA394601933046CC
:10512000109BFFF74FFF38B9049AAA4208D12146D5
:1051300001AB02A8099CA0470BB0F0BD0920FBE71A
:105140000B20F9E730B589B015461C4601236A46A5
:10515000FFF738FF60B9009848B1029B3BB10DB131
:10516000AB4209D10CB10023237009B030BD092036
:1051700004B120700020F8E70B20F9E703B11A60B2
:10518000002070472DE9F04F0D4689B004461646C1
:10519000C5F3C4089946090CC5F30727B8F1080FF1
:1051A0004FEA152A58D81F2913D897B900EB421097
:1051B0003946182204EB461410302DF051FF284BCD
:1051C000A362284BC4E90688E362002009B0BDE869
:1051D000F08F1298FFF7C6FE00236A4639468346D1
:1051E000FFF7F0FE0028F1D1B9F1000F9DF8103063
:1051F0000CBF042208221A4230D06B072ED1029B2A
:1052000043452BD304EB461E6D460EF1100C0FCD1B
:10521000ACE80F0095E80F008CE80F00CEF81C807A
:10522000B9F1000FD1D11F2F06F1440210D8DBF8DD
:1052300008306BB103EBD7030AF0070A26440C339E
:1052400044F82230012303FA0AFA86F830A1BCE7B9
:10525000002344F82230B8E70720B7E70620B5E777
:105260006B5700087D5100082DE9F3410D461746A4
:105270001E46044600283ED000293CD0002B3AD0E0
:10528000017D082937D84068836813B9427B12B181
:1052900011B102202CE0F9B9297808292FD802464B
:1052A00000EB411E72450ED1082B28D803B941BB33
:1052B0000373417333463A462946204602B0BDE89F
:1052C000F041FFF722BED2F81880203252F804CC09
:1052D000E04512D36344E5E74A1ED0F83C31D2B230
:1052E0000093D0F838312968FFF74CFF0028E1D04F
:1052F00002B0BDE8F0810920FAE70620F8E70720B0
:10530000F6E70F20F4E700002DE9F0470D4686B0E0
:1053100090469946074618B9092006B0BDE8F087BF
:105320000029F9D0002BF7D0042AF5D8446805A845
:105330002DF077FF3B7D022B69D0052B7BD0012B15
:1053400057D12E68424BB1B2C6F30A053340002B49
:105350007BD1002EA26824DB1AB1B4F84431AB42F1
:1053600073D111F4F06F70D06FF480702B189BB272
:105370007F2B6AD96FF4B0616B189BB27E2B64D916
:105380006FF4C063EB189BB27E2B5ED9A5F5DC638E
:105390009BB21F2B59D9B5F5E06F56D8637B002B14
:1053A00053D0F343DB0F9A4203D1B4F84431AB42FC
:1053B0001FD0B4F842314FF0000AB4F84011AB42AC
:1053C000CDF800A004BF26F07F030593002E214BEB
:1053D000B8BF0025CDE901432A4640F2FF7360685B
:1053E00002F04BFE56450BDB50B90123A4F84451A3
:1053F000A3604B46424605A93846FFF786FD8CE779
:10540000C4F808A0C4E95AAA0028F2D084E7297891
:1054100001F10F03DBB20C2B17D9F029D4F8883136
:105420008CBF002101218B42C4F888111CBF0023CE
:10543000C4F86C31DDE72B884FF47A725343C4F81B
:105440008C310023C4F89031D3E70F2065E700BF0B
:1054500000F8FF3F59540008836890F8802170B528
:1054600003B30B79047B9C4223D81ED1012A08BFC9
:105470000B22D0F8883133B1D0F884311BB1DB680E
:10548000003B18BF0123D1F8054003F12E055A3324
:1054900040F8354000EBC506D1F8094001217460A1
:1054A00040F8231080F8802170BD002A08BF0D222B
:1054B000DFE7002A08BF0C22F4E700002DE9F043E3
:1054C0000D4685B017469846064618B9092005B01E
:1054D000BDE8F0830029F9D0002BF7D0042AF5D8D5
:1054E000446803A82DF09DFE337D013B052B65D854
:1054F000DFE803F0036B8664909829684E4B88B20E
:10550000C1F30A050B40002B40F094800029A268EB
:1055100028DB22B1B4F84431AB4240F08B8010F468
:10552000F06F00F087806FF4807905EB09039BB280
:105530007F2B7FD96FF4B06C05EB0C039BB27E2BF5
:1055400078D96FF4C0602B189BB27E2B72D9A5F569
:10555000DC639BB21F2B6DD9B5F5E06F6AD8637B16
:10556000002B67D06FEA01094FEAD979914503D141
:10557000B4F84431AB4221D0B4F84231AB4204BF5D
:1055800021F07F030393002994F86C31B8BF002504
:10559000B4F84011F02B2A468CBF0023012301935D
:1055A000237B00930023606802F08FFD00288DD0DC
:1055B000C4F86801C4F80890A4F8445143463A4638
:1055C00003A93046FFF7A1FC81E72B7803F10F0216
:1055D000D2B20C2A2ED9F02BD4F868218CBF00212E
:1055E00001215161FF2284F86C31012384F8792173
:1055F000C4F870310023C4F88431C4F88831DDE781
:10560000A268BAB92B886421C4F884214B43C4F83A
:105610007C31D3E72B884FF47A725343C4F880313E
:105620000023EAE7A3682BB92B78F02B02D884F883
:105630007831C3E70F204AE700F8FF3F2DE9F04F2C
:1056400089B01446064605930123049100210DF10B
:105650001B0220460093DDF84CB08DF81B10FFF7BD
:105660002BFD054660B1129B23B104B124882402AE
:10567000129B1C606FF00B05284609B0BDE8F08F47
:10568000B1468046074600235FFA88FA07AA2046FB
:1056900007930AF101010123C9B200930423FFF724
:1056A0000BFD0E28039024D038B1129B002BE1D0C3
:1056B00004B1248848EA0424DAE7049B5246079997
:1056C00030460093059BFFF75DFD58B1039BC9F879
:1056D0001830FF23C9F81C30DBF8003013B9079BE2
:1056E000CBF800309DF81B30534584BFD9F81C30EF
:1056F000FF1808F1010809F12009B8F1080FC2D11B
:10570000082FDBF8003003D847B99DF81B202AB1D9
:10571000002BB1D10123CBF80030ADE7002BABD18A
:105720009DF81B3037737373A6E770B505460C46BA
:105730001E46FFF7C3FBB8B92B7D012B14D133688C
:10574000042B11D123686A68C3F30A053DB1B2F88E
:10575000421121F07F06B54208BF61F30F03926842
:105760000AB943F00043236070BD70B50646144685
:105770001D46084661B15EB153B1B36800219A423B
:1057800028BF1C4622462DF06BFC00202C6070BD0B
:105790000920FCE7D0F868312DE9F04F03F1050945
:1057A00090F86C314FF0000B89B0013B04465D4628
:1057B000DBB20293637B5FFA8BF843450FD8237B00
:1057C0009D4245D045F400154FF4C2432C220121DF
:1057D00000952068FEF7D2FF09B0BDE8F08F4FEAD0
:1057E0004816A31906F1100093F81CA02044554454
:1057F000082DE7D89A692644082AB76A28BF0822E4
:10580000924503923BBF002306A94946CDE90633E2
:105810000023F36105ABB847039AC6F81CA0924574
:1058200004D2524606A948462DF0FBFC08F1440379
:1058300054F8233043B1029AFC2A05D9A0441A78BF
:1058400098F830110A431A70D1440BF1010BB1E7FB
:105850000023D4F868116068C4F87031D4F880313E
:10586000C4F88831D4F87C31C4F8843109B0BDE87B
:10587000F04F02F047BC00002DE9F04F8BB0884696
:10588000154604460593BDF86030BDF850B0159F2D
:10589000DDF864900493002800F0D080002900F027
:1058A000CD80002A00F0CA80002F00F0C780169B30
:1058B000002B00F0C380179B002B00F0BF804FF43B
:1058C000CA7200212DF0CCFB179B25604146636016
:1058D0000023169A2046089308ABCDE900930123D4
:1058E000FFF7ACFE054668B901210990042309AA17
:1058F00038460091FFF7E0FB78B1B9F1000F05D110
:105900006FF00B0528460BB0BDE8F08F3B881B02FB
:1059100043F00103C9F80030F2E7099B002BC3F301
:105920000A0607DB627B0AB1002E44D1089A0AB945
:10593000012208924FF0000A089A52B1012A18BFBA
:10594000134601211A2200934FF402432068FEF708
:1059500015FFBAF1000F31D026B12BF07F039E4224
:1059600008BF5E46374B324604991798CDE901438C
:105970000023009340F2FF7302F07FFB05460028EE
:10598000C0D1C4F808A0FE234FF0010A0DF11D029A
:105990008DF81D30022153463846CDF800A0FFF7A0
:1059A0008BFB054660B1B9F1000FA9D03B881B0203
:1059B00043F00203AEE74FF0010ABDE75646D1E7D8
:1059C000059B0DF11E02ADF81E000521C4F88431BF
:1059D00038469DF81D30F02B8CBF00230123C4F8FE
:1059E00088310223CDF800A0FFF766FBBDF81E301A
:1059F0004FF47A72A4F842B1A4F844615343C4F856
:105A00004841C4F88C31049BC4F85841A4F8403193
:105A10000D4BC4F84C310D4BC4F850310C4BC4F84D
:105A20005C310C4BC4F8603104F5A473C4E94EA892
:105A3000BB6004F5AC74169B9C6063E74FF0FF35C8
:105A400060E700BF595400082B57000809530008AD
:105A5000BD4E0008695200082DE9F04F8BB0044696
:105A600005918168149A002900F0A980002B00F0AC
:105A7000A6801AB9D0F88831002B3FD194F8802144
:105A80000A2A13D9B2F10B05237B48F2202118BF53
:105A90000125009348F2102320680C2A18BF0B46FA
:105AA00004222946FEF76AFE84F88051D4F8883132
:105AB00033B1D4F884311BB1DB68B3FA83F35B09EB
:105AC00003F12E02002004EB830A04EBC20280469D
:105AD0000492DAF86831A3B9D4F88C1171B1D4F812
