:020000040800F2
:1000000000000820F90900085D3B00085F3B00087C
:10001000613B0008633B0008653B000800000000EE
:1000200000000000000000000000000041C10008C6
:10003000673B000800000000E1C1000845C200085D
:10004000490A0008490A0008490A0008490A000844
:10005000490A0008490A0008490A0008490A000834
:10006000490A0008490A0008490A0008490A000824
:10007000490A0008490A0008490A0008490A000814
:10008000490A0008490A0008490A0008693B0008B3
:10009000753B0008793B00087D3B0008490A0008D1
:1000A000490A0008490A0008490A0008490A0008E4
:1000B000490A0008490A0008490A0008490A0008D4
:1000C000490A0008490A0008490A0008490A0008C4
:1000D000490A0008490A0008490A0008490A0008B4
:1000E000813B0008490A0008490A0008490A00083B
:1000F000490A0008893B0008490A0008490A000823
:10010000490A0008490A0008490A0008490A000883
:10011000490A0008490A0008953B0008490A0008F6
:10012000490A0008490A0008490A0008490A000863
:10013000490A0008490A0008490A0008490A000853
:10014000490A0008490A0008490A0008490A000843
:10015000490A0008490A0008490A0008490A000833
:10016000490A0008490A0008490A0008490A000823
:10017000490A0008490A0008490A0008000000006E
:10018000490A0008490A0008490A0008490A000803
:10019000490A0008490A0008490A0008490A0008F3
:1001A000A13B0008490A0008AD3B0008490A0008C5
:1001B000490A0008490A0008490A0008B93B000832
:1001C000490A0008490A0008C53B0008490A000816
:1001D000490A0008490A0008490A0008490A0008B3
:1001E000490A0008490A0008490A0008490A0008A3
:0801F000490A0008490A000851
:1002000010B5054C237833B9044B13B10448AFF350
:1002100000800123237010BDE006002000000000D4
:10022000143B030808B5034B1BB103490348AFF364
:10023000008008BD00000000E4060020143B030815
:10024000034613F8012B002AFBD1181A0138704716
:1002500001F0FF01102A2BDB10F0070F08D010F877
:10026000013B013A8B422DD010F0070F42B3F6D17B
:10027000F0B441EA012141EA014122F007047FF094
:1002800000070023F0E80256083C85EA010586EAEB
:10029000010685FA47F5A3FA87F586FA47F6A5FA27
:1002A00087F68EB9EED1F0BC01F0FF0102F0070233
:1002B00032B110F8013B013A83EA010313B1F8D1DE
:1002C0000020704701387047002D06BF35460338BF
:1002D000073815F0010F07D1013015F4807F02BFF8
:1002E000013015F4C03F0130F0BC0138704700BF49
:1002F00081F0004102E000BF83F0004330B54FEAD7
:1003000041044FEA430594EA050F08BF90EA020F43
:100310001FBF54EA000C55EA020C7FEA645C7FEAD6
:10032000655C00F0E2804FEA5454D4EB5555B8BFF9
:100330006D420CDD2C4480EA020281EA030382EA6A
:10034000000083EA010180EA020281EA0303362DFC
:1003500088BF30BD11F0004F4FEA01314FF4801CCF
:100360004CEA113102D0404261EB410113F0004FE1
:100370004FEA03334CEA133302D0524263EB430398
:1003800094EA050F00F0A780A4F10104D5F1200E36
:100390000DDB02FA0EFC22FA05F2801841F1000191
:1003A00003FA0EF2801843FA05F359410EE0A5F165
:1003B00020050EF1200E012A03FA0EFC28BF4CF096
:1003C000020C43FA05F3C01851EBE37101F000454C
:1003D00007D54FF0000EDCF1000C7EEB00006EEB59
:1003E0000101B1F5801F1BD3B1F5001F0CD34908E3
:1003F0005FEA30004FEA3C0C04F101044FEA44523A
:1004000012F5800F80F09A80BCF1004F08BF5FEAC0
:10041000500C50F1000041EB045141EA050130BDA0
:100420005FEA4C0C404141EB0101013C28BFB1F5B2
:10043000801FE9D291F0000F04BF01460020B1FAFD
:1004400081F308BF2033A3F10B03B3F120020CDAD0
:100450000C3208DD02F1140CC2F10C0201FA0CF0AE
:1004600021FA02F10CE002F11402D8BFC2F1200C13
:1004700001FA02F120FA0CFCDCBF41EA0C019040C9
:10048000E41AA2BF01EB0451294330BD6FEA040412
:100490001F3C1CDA0C340EDC04F11404C4F12002FD
:1004A00020FA04F001FA02F340EA030021FA04F30F
:1004B00045EA030130BDC4F10C04C4F1200220FA66
:1004C00002F001FA04F340EA0300294630BD21FAA4
:1004D00004F0294630BD94F0000F83F4801306BF6A
:1004E00081F480110134013D4EE77FEA645C18BF5E
:1004F0007FEA655C29D094EA050F08BF90EA020FF5
:1005000005D054EA000C04BF1946104630BD91EAEC
:10051000030F1EBF0021002030BD5FEA545C05D1EF
:100520004000494128BF41F0004130BD14F580042E
:100530003CBF01F5801130BD01F0004545F0FE41A2
:1005400041F470014FF0000030BD7FEA645C1ABFD7
:10055000194610467FEA655C1CBF0B46024650EA0E
:10056000013406BF52EA033591EA030F41F400213A
:1005700030BD00BF90F0000F04BF0021704730B5C0
:100580004FF4806404F132044FF000054FF0000195
:1005900050E700BF90F0000F04BF0021704730B556
:1005A0004FF4806404F1320410F0004548BF40422B
:1005B0004FF000013EE700BF42004FEAE2014FEA80
:1005C00031014FEA02701FBF12F07F4393F07F4F5B
:1005D00081F06051704732F07F4208BF704793F05E
:1005E0007F4F04BF41F40021704730B54FF4607471
:1005F00001F0004521F000411CE700BF50EA010274
:1006000008BF704730B54FF000050AE050EA01021C
:1006100008BF704730B511F0004502D5404261EB8C
:1006200041014FF4806404F132045FEA915C3FF4CD
:10063000D8AE4FF003025FEADC0C18BF03325FEA6A
:10064000DC0C18BF033202EBDC02C2F1200300FA1B
:1006500003FC20FA02F001FA03FE40EA0E0021FA40
:1006600002F11444BDE600BF7BB972B90029BEBFD8
:1006700000204FF0004106E008BF00281CBF6FF0CB
:1006800000414FF0FF3000F0B5B9ADF1080C6DE955
:1006900004CE002909DB002B1ADB00F04DF8DDF851
:1006A00004E0DDE9022304B07047404261EB410100
:1006B000002B1BDB00F040F8DDF804E0DDE902234D
:1006C00004B0404261EB4101524263EB4303704787
:1006D000524263EB430300F02FF8DDF804E0DDE95C
:1006E000022304B0404261EB41017047524263EB88
:1006F000430300F021F8DDF804E0DDE9022304B053
:10070000524263EB4303704753B94AB9002908BF0B
:1007100000281CBF4FF0FF314FF0FF3000F06AB9E6
:10072000ADF1080C6DE904CE00F006F8DDF804E048
:10073000DDE9022304B070472DE9F047089D0C461F
:10074000002B4ED194468C458646B2FA82F262D98D
:100750004AB1C2F12003914020FA03F30CFA02FCE3
:10076000194300FA02FE4FEA1C471FFA8CF6B1FB50
:10077000F7F44FEA1E4307FB141143EA014304FB5D
:1007800006F199420AD91CEB030304F1FF3080F013
:100790001281994240F20F81023C6344591A1FFAB8
:1007A0008EF3B1FBF7F007FB101143EA014300FBA6
:1007B00006F69E420AD91CEB030300F1FF3180F0DC
:1007C000FC809E4240F2F980634402389B1B40EA61
:1007D000044000211DB1D3400022C5E90032BDE82C
:1007E000F0878B4205D90DB1C5E90001002108460B
:1007F000F5E7B3FA83F1002946D1A34202D3904230
:10080000C0F0F080861A64EB03030120002DE6D0CF
:10081000C5E90063E3E7002A40F09080A1EB0C04F7
:100820004FEA1C481FFA8CF70121B4FBF8F64FEA97
:100830001E4308FB164443EA044307FB06F09842B4
:1008400008D91CEB030306F1FF3402D2984200F2F0
:10085000CD8026461C1A1FFA8EF3B4FBF8F008FB75
:10086000104443EA044300FB07F79F4208D91CEBFE
:10087000030300F1FF3402D29F4200F2B080204611
:10088000DB1B40EA0640A5E7C1F120068B4022FAB7
:1008900006F71F4320FA06FC04FA01F343EA0C03AF
:1008A000F44000FA01F8380C4FEA1349B4FBF0FEAB
:1008B0001FFA87FC00FB1E4449EA04440EFB0CF9B6
:1008C000A14502FA01F20AD93C190EF1FF3A80F073
:1008D0008480A14540F28180AEF1020E3C44A4EB3D
:1008E00009041FFA83F9B4FBF0F300FB134449EA4F
:1008F000044403FB0CFCA44507D93C1903F1FF3069
:1009000067D2A44565D9023B3C4443EA0E40A0FBB4
:100910000293A4EB0C049C42CE469C4651D34ED08D
:1009200055B1B8EB0E0364EB0C0404FA06F6CB40A9
:100930001E43CC40C5E90064002150E7C2F120030A
:1009400020FA03F10CFA02FC24FA03F394400C435E
:100950004FEA1C4800FA02FE1FFA8CF7B3FBF8F0CE
:1009600008FB1031230C43EA014300FB07F19942D5
:1009700008D91CEB030300F1FF362CD299422AD987
:10098000023863445B1AA4B2B3FBF8F108FB1133DD
:1009900044EA034401FB07F3A34208D91CEB040417
:1009A00001F1FF3613D2A34211D902396444E41A8B
:1009B00041EA004139E70446F0E6084606E7C84543
:1009C000AED2B9EB020E63EB070C0138A8E7314653
:1009D000EDE7034699E73046D4E7D6467FE7634420
:1009E00002384DE70646234608460FE7023E6344B9
:1009F00030E700BF704700BFDFF834D0002103E0CC
:100A00000C4B5B58435004310B480C4B42189A4234
:100A1000F6D30B4A02E0002342F8043B094B9A420A
:100A2000F9D307F007FD32F0B7FA02F01DF870476E
:100A3000000008200890030800000020D0040020D7
:100A4000E0060020147D0120FEE77047704708B5DE
:100A500001F002FBBDE8084001F086BA01F0FEBAE1
:100A6000174B1A6B42F0010210B51A6386B01B6B6C
:100A700003F001030093009B59B90123039111482E
:100A8000CDE90131022301A9049308F0B7FE06B0B5
:100A900010BD0129FBD100240223019101A90948BD
:100AA000CDE903434FF48813029308F0A7FE2246D2
:100AB0000F21062008F082F8062008F0B1F8E6E7DA
:100AC0000038024000000240002108B50846FFF748
:100AD000C7FF08BD0121024808B508F073FF08BD33
:100AE0000000024008B50020FFF7F4FF08BD406891
:100AF00070474160704700004FF0E022D2F8FC3DA3
:100B000043F08073C2F8FC3D054B064AD3F8B01F92
:100B10000A43C3F8B02F1A6842F001021A60704706
:100B2000001000E055CEACC5521A02EB5302B2FBE6
:100B3000F3F07047014B5868704700BF001000E0A9
:100B4000704710B504460C2131F0D1F9204610BD94
:100B5000036810B51B69044631B19847A268636801
:100B60009B1A0344636010BD9847A060FBE7704781
:100B70007047000008B5FFF7A7FF024B00221A607C
:100B800008BD00BFFC06002070B50D46FFF7AAFFA8
:100B90000B4AC4B293785678117813F00100D370E1
:100BA0009670517014700AD016F0010007D011F041
:100BB000010004D0E30756BF01200020287070BD5B
:100BC000FC06002010B50446042131F090F92046BF
:100BD00010BD70477FB500234FF0FF3254210B4802
:100BE0008DF817300123CDE901320DF11702009283
:100BF000A82209F069F99DF81730112B044B14BF96
:100C0000702254221A8007B05DF804FB9827002058
:100C10000007002010B50446042131F068F9204691
:100C200010BD00002DE9F04F364B89B04FF00008A1
:100C300014464FF480720E468DF81680CDF8188059
:100C4000ADF81C808DF81780C3F88420BFF34F8F58
:100C5000BFF36F8FDFF8B4B09BF80030002B44D0A7
:100C60000125DFF8AC904FF0FF3A06AF2B46022289
:100C700000972548CDE9015AB9F8001009F024F988
:100C80009DF818300222204803F00F038DF816302B
:100C90000DF11703CDE9015A00932B46B9F8001066
:100CA00009F038F88BF800809DF81630EBB104237A
:100CB0000322CDF808A01448CDE900732B46B9F8FB
:100CC000001009F001F99DF818309DF819201B0259
:100CD00003F4706313449DF81B2033609DF81A30B1
:100CE0001B0203F4706313442360064B4FF48072BD
:100CF0005A609DF81600003818BF012009B0BDE801
:100D0000F08F00BF00E100E09827002002070020DC
:100D100000070020B0F5005F02D1024B01221A70DB
:100D2000704700BF02070020032823D8DFE800F047
:100D3000020B121A104B40211A68B2FA82F25209C1
:100D40000E4808F045BE0C4B80215A68B2FA82F278
:100D50005209F5E7084B022109489A68B2FA82F273
:100D60005209EEE7044B40210648DA68B2FA82F2F3
:100D70005209E6E7704700BF040700200008024060
:100D80000024024000140240032823D8DFE800F0CA
:100D9000020B121A104B40211A68003A18BF0122A8
:100DA0000E4808F015BE0C4B80215A68003A18BF57
:100DB0000122F5E7084B022109489A68003A18BF5A
:100DC0000122EEE7044B40210648DA68003A18BFDA
:100DD0000122E6E7704700BF040700200008024038
:100DE000002402400014024003280FD8DFE800F07E
:100DF0000206080B4021064808F0EFBD8021FAE703
:100E000002210448F8E740210348F5E7704700BF96
:100E100000080240002402400014024008B50328E4
:100E200013D8DFE800F0020A0C0F4021084808F050
:100E3000C9FD431E5842584108BD8021F6E70221F2
:100E40000448F4E740210448F1E70020F1E700BF3F
:100E500000080240002402400014024070B5084D12
:100E600000240126E0B2FFF7D9FF18B12B68012B4F
:100E700018BF2E6001340435052CF3D170BD00BFBE
:100E800004070020012380F8781080F8793070473B
:100E9000704700207047000041640039024B18BFC2
:100EA00001211970704700BFD36F012070470020E7
:100EB0007047836B0BB10846184770474FF6FF70B9
:100EC0007047406803689B69184770477047000087
:100ED000014B1868704700BF2407002070470000CE
:100EE00038B5074D044601F085FA2846FFF704FEA1
:100EF0000123256184F87030024B636138BD00BF67
:100F00001807002014070020014B196001F096B962
:100F100024070020F0B40023104CC4F88430BFF341
:100F20004F8FD4F8803043F6E076C3F3C905C3F39E
:100F30004E335B0103EA060C2A464CEA8277013AFB
:100F4000C4F87472F9D2203B13F1200FF2D1BFF331
:100F50004F8FBFF36F8FF0BC01F070BA00ED00E06F
:100F600001F06EBA08B501F04FF9002207215A20AE
:100F700007F024FE002207216220BDE8084007F0A8
:100F80001DBE0000024B0422DA6001F0BDBB00BFB1
:100F900000E100E001F04EBA73B50C4E0446337820
:100FA00043B100252923152209482946009508F058
:100FB0009EFB3570204601F03FFA94F84B3013B198
:100FC000044B01221A7002B070BD00BF0400002063
:100FD000EC2700200500002010B504461AF09EFF03
:100FE00023682046D3F8BC30BDE8104018471AF0FB
:100FF000B1B910B50446842130F079FF204610BD08
:1010000090F834100D4B10B590F878401A788C4257
:1010100009D03AB90A490B4A08881488108001227D
:101020000C801A7010BD002AFCD0064A04491488AE
:1010300008880C8010800022F3E700BFCC6F0120ED
:10104000CA6F0120C86F012070B50D46194635B929
:10105000094B40F2FF21094A094831F0C1FAC0E9C1
:101060000F52003A074B18BF01221A700368BDE8FF
:101070007040D3F890301847CC3B0308043C030879
:10108000523C0308D26F012008B5094B1B888B42E4
:1010900003D8084B1B88934205D9074BA321074A65
:1010A000074831F09DFA074B1980074B1A8008BD9D
:1010B000C86F0120CA6F0120973C0308FA3C03085F
:1010C000523C0308CE6F0120D06F0120044B042254
:1010D000C3F88C20BFF34F8FBFF36F8F01F01EBB9F
:1010E00000E100E0034690F87A0018B15868036800
:1010F0001B6818477047000007B5002135231522EB
:101100000348009108F0F3FA03B05DF804FB00BF58
:10111000EC27002010B50446FFF7EEFF0F4B02222C
:1011200020461B68C3F810240122C3F81024D3F80A
:10113000082442F00102C3F80824D3F8082442F03E
:101140000202C3F80824064B1A68536B43F00303EA
:10115000BDE81040536301F061B800BFEC270020E8
:10116000F026002010B50C4C237833B108F0AFFA0C
:101170000020FFF7D9FD00232370084B1B6893F86C
:101180006A20013283F86A200022BDE8104083F80B
:101190007C2000F075B800BF05000020D46F01204E
:1011A00010B50020FFF7F0FD044B1C6823682046B3
:1011B0001B6A9847012384F87C3010BDD46F01204E
:1011C000014608B5034B186801B101211AF0C0FEB1
:1011D000012008BDD46F0120054B002205485A604C
:1011E0009A60054A1A60054B0360FFF7C3BC00BF55
:1011F0001807002014070020783B0308A03B0308D1
:101200000121002208B508460AF062FC0A4B18606A
:1012100028B90A4B28210A4A0A4831F0E1F900228C
:10122000042101200AF01EFD074B186018B9074B76
:101230002C21034AF0E708BD2C0700202C3E0308B0
:10124000753E0308A43E030828070020F93E030862
:10125000024B4FF0FF3118680AF092BC2C070020B7
:10126000014B18680AF0C8BC2C070020024B002173
:1012700018680AF085BC00BF2C070020FFF7F0BFFC
:101280000023034803491A4600680AF031BD00BF35
:10129000280700200800002013B50023074C01A9EF
:1012A0001A4620680AF066FD4FF0FF33002201A9BC
:1012B00020680AF05FFD02B010BD00BF28070020C3
:1012C00003685B6C18470120704703689B6A1847E6
:1012D000FEE700000E4B82B01A6B42F400021A6364
:1012E0001A6B02F400020192019A1A6942F4000298
:1012F0001A611A6922F400021A61064B064A9A61C1
:10130000064ADA614FF08062054B9A6002B070477E
:101310000038024008280020AD150008D11200084E
:1013200000E100E040F2EF3070470000054B4FF065
:1013300080620360044BC3F88820BFF34F8FBFF374
:101340006F8F7047A040030800E100E010B504462D
:101350004FF45A61FFF7EAFF204630F0C8FD2046FF
:1013600010BD000008B50A2809D8DFE800F0061013
:101370000E080808081010101000022008BD054BC8
:101380009021054A054831F02BF90020F6E70120AD
:10139000F4E700BF3B3F0308563F0308A13F0308A3
:1013A00038B50C46887FFFF7DDFF174BA58AE28A28
:1013B000586342EA054221695A64628BD963521B21
:1013C0001A642568082D0ED19A611A6158620F4A75
:1013D000207F42EA0062DA61E2681A620C4A5961CF
:1013E000D9601A6038BD0022D8611A61E1680A0A22
:1013F0004809C1F3C40102F4784200F4FC600243DE
:101400000A439A63034AECE700B002400900010076
:10141000012302000123030008B50B280BD8DFE8E5
:1014200000F00612100A0A0A0A0808080808022032
:1014300008BD0520FCE7054B6F21054A054831F042
:10144000CFF80020F4E70120F2E700BF3B3F03089C
:10145000F43F0308A13F03082DE9F04191F81D80F6
:101460000C464046FFF7D8FFA77F05463846FFF7F2
:10147000D3FF06463846FFF775FFA18A628B434BC0
:10148000521A1A649A61228B521A1A61E28A5863BC
:1014900042EA014221695A646268D963DA602068CD
:1014A000802828D0227F0FD8202866D0402864D0FA
:1014B00004281AD045EA0265344BB84545F4003596
:1014C000DD6160D0324A44E0B0F5807F04D0B0F5F1
:1014D000007FEFD12F4800E02F4840EA0262DA6136
:1014E000E2681A625E62596132E045EA026242F4E1
:1014F0000032DA61F6E7A068021DDA62227F45EA6F
:10150000026545F40035DD615E625961017841B1E3
:10151000012921D0214B4FF48D71214A214831F00E
:101520005FF8DA69418822F47F42013922F0100223
:1015300042EA01220121DA61144BDA6942F0200209
:10154000DA61DA699206FCD410229A600029B9D0D7
:10155000154A1A60BDE8F081B2F1FF01DA694088EE
:1015600022F47F4218BF0121013822F0100242EA22
:10157000002242F01002DA61DEE745EA0262034B24
:1015800042F40032B5E742F20132E2E700B0024035
:1015900001230100090002000A0002003E40030886
:1015A00058400308A13F030801230200024B1B68B7
:1015B000586803685B691847D46F012070B504460A
:1015C0000A4B0C3000262546602260602672667247
:1015D00045F8203B29461AF00FFE04F55A63EE60E9
:1015E00024359D42FBD1204670BD00BFA0400308BA
:1015F000034B1A68D207FCD423229A60704700BFBD
:1016000000B00240094B5A69D2030AD5BFF34F8F8D
:1016100008440029A0EB010204DCBFF34F8FBFF3A5
:101620006F8F70472039C3F86822F2E700ED00E0C1
:1016300030B5104C2568ED07FCD423250904FF2B99
:10164000A56041F001014FF0020565636164E0634C
:101650000AD00949656241EA0363E361074B2262EC
:101660006061E060236030BDE561039BA363044BD0
:10167000F8E700BF00B002400900010001000200CD
:101680000100030030B50F4C2568ED07FCD423257D
:101690001204FF2BA56042F001024FF002056563C2
:1016A0006264E063E16008D01B0643F00213E3616B
:1016B000054B65626061236030BD044BE36101232B
:1016C000F9E700BF00B0024001000200020002FF83
:1016D00030B50B4C2568ED07FCD4232512041B06FE
:1016E000A56042F00102022543F4003365636264A1
:1016F000E063E160E361034B65626061236030BDDC
:1017000000B00240010002004069704790F84400B8
:101710007047036B23B9C06A003818BF01207047B7
:101720000120704780687047043010B50C460FC820
:1017300084E80F0010BD704708B5034A40F22A2123
:10174000024B034830F04CFFE840030813590308EC
:101750004341030810B50446482130F0C8FB204639
:1017600010BD00002DE9F0471D46ADF51E7D436B11
:1017700007460E469046BDF89842002B3BD000220B
:1017800003A8DFF8B0A0CDE9013212F02FFB4FF42F
:10179000F4725021249024A80CF0F5FA4246314608
:1017A00024A80DF049FA012124A866000CF0E6FBFC
:1017B000022324A88DF8D8300CF081FC2B9BBDF8B7
:1017C0009C82A34228BF23461A46419B5443984516
:1017D00002EB420928BF98460134531E640006FB01
:1017E00003557642479B984509D824A80CF0E8FB9E
:1017F00024A80CF015FB0DF51E7DBDE8F087012235
:1018000001A924A80CF0A4FC7A6B02EB0900904219
:1018100001D82544E6E751789378C9000AEA032302
:1018200001F4FC610B4312F8031B43EAD1032B8044
:101830003544ECE700F8FFFF0A4A02600022C0E9E5
:101840000522C0E90722C0E90922C0E90B22C0E94C
:101850000D12C0E90F2280F84420C0E90322C0E93C
:10186000012270472C44030810B40C4611461A4656
:10187000036B3BB1036C806BE41A20445DF8044BAE
:1018800031F0D8BAC06AF8E7036B10B573B1036CD6
:10189000826BC91A5318525C98785C780004DB7824
:1018A00040EA0420104340EA036010BDC36A585860
:1018B000FBE7036B43B1036CC91A836B5A18585C7E
:1018C000527840EA02207047C36A585A70470000B5
:1018D00070B50446006B0D461646D8B1E36B9342D3
:1018E00008D209230D4A65210D4884F844300D4B78
:1018F00030F076FE0368DB689847206B3246A16BB8
:1019000003681B69984710B90D2384F84430A06B15
:10191000256470BDE06A0844FBE700BFB5410308D9
:1019200043410308A24103082DE9F84343690446F3
:101930002BB9234BAA21234A234830F051FE082219
:101940008169FFF7C5FFA16943F2300646F26437AB
:1019500004312046FFF798FFA3691844A36A00F1F9
:1019600008029A4206D3012300206361236AA3611F
:10197000BDE8F883636909300822013320F00101D2
:1019800020466361A161FFF7A3FFD4F818902046B9
:101990004946FFF78EFF09F1020180462046FFF716
:1019A00088FF09F1040105462046FFF76DFFB045A9
:1019B000D2D1BD42D0D10028CED00120D8E700BF7F
:1019C000F741030840420308434103082DE9F04F63
:1019D0000446ADF51F7D8A46164681690822984661
:1019E000FFF776FFA7692046391DFFF74DFF07F186
:1019F0000801024605462046FFF76AFF636B07466B
:101A000033B9414B40F2B911404A414830F0E8FD4A
:101A1000002203A8CDE9013212F0E8F94FF4F47284
:101A20005021249024A80CF0AEF92A46394624A867
:101A30000DF002F9012124A80CF0A0FA022324A839
:101A40008DF8D8300CF03BFBBAF90250479BAB4203
:101A50002ED3BAF90090BAF804702B9B09EB490B0E
:101A60004F443FB29F4228BF1F46013B08FB03552E
:101A7000BAF8063006EB4506BAF802501D44419B01
:101A80002DB29D4228BF1D466FF0010303FB08F8ED
:101A900008FB09FA479AAA4210D324A80CF090FA3E
:101AA00024A80CF0BDF901200DF51F7DBDE8F08FD5
:101AB000012201A924A80CF04BFBC7E7012201A9D0
:101AC00024A80CF045FB626B06EB0A0C48465A440E
:101AD000104BB84202F1030201D30236DAE712F8E2
:101AE00002EC013012F8011C4FEACE0E03EA01218C
:101AF0000EF4FC6E41EA0E0112F803EC41EADE013D
:101B0000ACF80010C444E4E773420308C942030878
:101B10004341030800F8FFFF0129036838BF012192
:101B2000DB6A70B50D4604469847A84204D2236884
:101B30002046DB6A984705466B1EE6691022204660
:101B400006EB031606F10801FFF7C2FE06F11001CD
:101B50002046FFF799FE236A043B0344C4E905537A
:101B600070BD0000002148222DE9F041044681614A
:101B700080F84410FFF7ACFEA6690423624A3146A0
:101B80002046FFF771FE40B10323604AF22184F83A
:101B900044305F4B5F4830F023FD06F10801042319
:101BA0005D4A2046A161FFF75FFE30B10423574A2A
:101BB000FA2184F84430594BECE706F10C01042378
:101BC000574A2046A161FFF74FFE074638B105236B
:101BD0004E4A40F2011184F84430524BDAE706F1E4
:101BE00010012046FFF750FE054620B94E4B40F24B
:101BF0000711464ACEE706F1140804234B4A204653
:101C00004146FFF731FE002849D0062384F84430CE
:101C10000423474A06F118012046FFF725FE002855
:101C20003FD0072384F844304544424F0C222046DD
:101C30002946FFF74DFE05F1080604233A462046E3
:101C40003146FFF711FE94F84430002848D0002BAD
:101C500048D1A36AAB4249D805F10C0304352046AC
:101C6000A3612946FFF710FE3044294660622046F2
:101C7000FFF70AFE0644042220463146FFF728FEFD
:101C800004232D4A31462046FFF7EEFD002838D1C7
:101C90000123E6616361A3692362BDE8F081012746
:101CA000B6E7002FC0D006F120012046FFF7ECFD7B
:101CB0004FF47A7306F13001B0FBF3F06060204618
:101CC000FFF7E2FD06F14001A0602046FFF7DCFDD2
:101CD00006F14401E0602046FFF7D6FD2061A3E74E
:101CE000002BB9D00A2384F84430D6E7291D2046BA
:101CF000FFF7CAFD85190C2220462946FFF7E8FDAB
:101D000099E70B23EFE700BF234303084143030890
:101D100028430308434103086E4303087343030841
:101D20008B43030890430308A6430308B243030808
:101D3000B7430308BC430308C1430308C0E90A21B1
:101D400000220263FFF70EBF10B5002304460846C9
:101D5000E3620B6821639B689847A0622046BDE858
:101D60001040FFF7FFBE70B4BDF80C50BDF8106016
:101D70002AB123B1CDE9035670BCFFF7F3BC70BCA8
:101D8000704700002DE9F04F9946436985B004463D
:101D90000F4690462BB9294B7721294A294830F024
:101DA0001FFC08228169FFF793FDA6692046314692
:101DB000FFF77FFDB11C83462046FFF77AFD311DFA
:101DC00082462046FFF760FD06F10801A36A05463A
:101DD00042189A4226D243F230039B4517D146F26D
:101DE00064339A4513D190B10246A1612046FFF7B2
:101DF0006FFD0E9B01462A462046CDF80080CDE9B6
:101E000001933B46FFF7AFFF636901336361A36949
:101E10002B4405B908330133626A23F0010393426E
:101E2000A36109D1012301206361236AA36180F0CA
:101E3000010005B0BDE8F08F0020F8E7F741030886
:101E4000C643030843410308012070470C20704734
:101E50000C2303FB0100083070470C2303FB010037
:101E6000083070470120704798207047982303FB83
:101E7000010008307047982303FB010008307047C9
:101E8000012070471020704700EB011008307047A8
:101E900000EB011008307047084602F083B80000DC
:101EA000034B10B50446036018F0AAFF204610BD8E
:101EB000D444030810B50446FFF7F2FF142120466E
:101EC00030F015F8204610BD034B10B504460360F2
:101ED00018F096FF204610BDA044030810B5044634
:101EE000FFF7F2FFA021204630F001F8204610BD98
:101EF000034B10B50446036018F082FF204610BD66
:101F00006C44030810B50446FFF7F2FF1821204681
:101F10002FF0EDFF204610BD084B10B5044640F8E9
:101F2000CC3BFFF7BDFF04F12C00FFF7CDFF04F120
:101F30001400FFF7DDFF204610BD00BF0845030871
:101F400008B50248FFF7E8FF08BD00BF08160020EB
:101F500010B50446FFF7E0FF4FF4107120462FF054
:101F6000C6FF204610BD00002DE9F34101F09EFEA2
:101F70000024054601F09EFE2346014622462846DF
:101F8000009420F00FFF274B274A2046274D1A6068
:101F900002F01AFA264B274A27489A6020F06AFE78
:101FA0002B68BFF35B8FDB0735D428462FF0A1FFEA
:101FB00088B3224C224B04F1E40604F1140004F12E
:101FC0002C0804F1CC0723606060C4F80880E76047
:101FD000266118F017FF1B4B4046636118F012FF93
:101FE000194B3846E36218F00DFF184B04F1E0007E
:101FF000C4F8CC3002F05EFA224604F1E00130462B
:1020000002F04EFA304601F0CDFF114830F006FBE9
:1020100028462FF07AFF0F4802B0BDE8F041FEF7E6
:102020005FBF00BF38700120B407002004160020F5
:10203000D4070020B80700200C000020081600205C
:10204000084503086C440308A0440308D44403086B
:10205000411F00083007002070470000014819F0B8
:10206000E2B900BF3007002070B5274E274B284C3F
:102070003046284D2360FFF7A1FA284625F0A4FF3B
:1020800025481EF079FF254B00224FF4807124482B
:102090001A8683F858205A6683F870205A67DC60E5
:1020A000C3E912121F49C3E91A121F49C3E91E01ED
:1020B0001E491F48C3F880101E490B604FF4F07191
:1020C000C3E90422C3E90622C3E90822C3E90A22BC
:1020D000C3E90E22C3E91022C3E91422C3E917227F
:1020E000C3E901650180144801804FF44871134829
:1020F00001801348018013490A70012283F83420BB
:10210000114A1A6070BD00BF60080020BC3B030884
:1021100000160020D4070020B80700203007002058
:1021200000000101010000010004C8004200140089
:10213000C86F0120D46F0120CE6F0120CA6F01202B
:10214000D06F0120CC6F0120483D03080148FFF704
:10215000EDB800BF60080020002070478180704704
:10216000C180704701817047418170477047704757
:1021700070477047704710B4C4880368121B848886
:102180005B6D091B12B25DF8044B09B218474FF69C
:10219000FF7383814FF0FF3303621368C3611060E4
:1021A0007047002070478B888380012070477047FC
:1021B00080F82610704790F826007047002210B56E
:1021C000B1F90840B1F90A10028042808480C180D0
:1021D00010BD0022028042808280C2807047017759
:1021E000704780ED080A704780F82410704780F827
:1021F0002510704701207047983070478C30704729
:102200008430704770470000034B902283F85A23B4
:1022100083F85823704700BF00E100E0064AD36806
:102220001169C3F30A03013B9BB21364536B43F080
:1022300001035363704700BF00680140024B012255
:10224000C3F8AC105A62704700680140124A5369E3
:10225000DB0370B51ED50023C2F88430BFF34F8F67
:10226000D2F8803043F6E074C3F3C900C3F34E33B1
:102270005B0103EA0406014646EA81750139C2F8AA
:102280007452F9D2203B13F1200FF2D1BFF34F8FDC
:10229000BFF36F8F70BD00BF00ED00E07047704767
:1022A0007047242303FB0100002380F8243070478B
:1022B00080F82C10704710B5044630212FF017FE1F
:1022C000204610BD10B504462C212FF010FE2046EC
:1022D00010BD10B50446BC212FF009FE204610BDEC
:1022E000F8B50446104629B13E4BAA213E4A3F4864
:1022F00030F076F994F825301BB994F82630002B8D
:102300006ED03B4B00271B6893F86B20236984F841
:1023100026701344236194F82830002B5CD00368A6
:1023200065685B699847E6692B68002E2DD03146B9
:102330005B6A284698472B68E6692846DB6A984717
:102340008642E7612CBF002601262B6828469B6A3F
:102350009847A368E0600133A360A169D4E904321F
:102360005343A2684A43934238D994F82C0038B1B9
:102370009B1AB3FBF1F2994298BF02F1FF3222623D
:10238000012384F828303046F8BD226A62B128461D
:10239000D3E909739847216A01442846B847A368DE
:1023A000226A26621344A36094F827602B6826B142
:1023B0009B69284698470646C7E79B6A2846984780
:1023C0002B6807462846DB6A9847874201D22B686C
:1023D000EEE784F82560B8E70126BEE70023D0E7E2
:1023E0000126D0E714450308284503085946030889
:1023F000D46F012038B5044619F001F823689D6EAA
:102400001DF04CFB01462046A8472368054A20469C
:10241000D3F88C5000230449A847044B044A5A605F
:1024200038BD00BF00B80BC0000000C00819002074
:102430003819002018F0CABF18F0D4BF18F090BFA8
:1024400019F011B990F8252012B103685B6918479B
:102450007047000008B531B1044B4FF49271044A43
:10246000044830F0BDF890F8250008BD1445030875
:102470009E4603085946030810B531B1064B4FF488
:102480008F71064A064830F0ABF840681146036881
:10249000BDE810401B6B184714450308B8470308F4
:1024A0005946030808B531B1044B4FF48B71044A07
:1024B000044830F095F8C06808BD00BF1445030813
:1024C000F64803085946030870B5044629B1274B5E
:1024D0006F21274A274830F083F8052A2BD8DFE8F8
:1024E00002F003252B30373F406803681B6998478B
:1024F00008B3012384F82530002384F82630A36034
:10250000236194F82730B3B96468236820469B6A36
:102510009847236805462046DB6A984785420AD1DA
:10252000236820469B69BDE870401847002380F867
:10253000253080F8263070BDC3610023A36023617D
:10254000F9E7C361012380F8263080F82830F4E7EA
:102550000023012280F8253080F82630C261EDE7A3
:10256000003B18BF012380F82730E4E71445030837
:102570003B4A03085946030870B504460D4629B185
:102580000D4B5F210D4A0E4830F02AF84068114685
:102590000368DB689847606803689B6A984723680C
:1025A000E06029465E6A20462B4684F82850B446EF
:1025B0000122BDE870406047144503089F4B0308A3
:1025C0005946030870B50D46044611461A462DB10A
:1025D0000D4B4F210D4A0E4830F002F84068036859
:1025E0009B689847606803689B6A98472368E06027
:1025F00029465E6A20462B4684F82850B4460122BC
:10260000BDE87040604700BF14450308D54C03087F
:102610005946030808B529B1054B4121054A06482A
:102620002FF0DEFF81600161C0E9053208BD00BF07
:1026300014450308404E03085946030890F8252026
:102640001AB190F8242002B1186070472DE9F341C7
:10265000044615461F4629B1184BEA21184A194865
:102660002FF0BEFF406803681B69984710B3DFF87E
:102670005C80D8F800000368DB6A98473946064654
:1026800068461EF05FFC68461DF070F80E4B6068EF
:102690001B88BDF90210BDF9002003FB012201686F
:1026A00006EB4202CC692946A047D8F8000003682F
:1026B0001B6B984702B0BDE8F08100BF14450308CA
:1026C0008C4F030859460308CE6F0120D46F0120B8
:1026D00008B5034690F8240030B1084B40F26D1164
:1026E000074A08482FF07CFF012283F8242081F854
:1026F0003400C8860887086308BD00BFD3500308AC
:102700000351030859460308034B4FF080629A6057
:102710004FF080729A60704700E100E0084B4FF084
:102720008062C3F88820BFF34F8FBFF36F8F4FF0E5
:102730008072C3F88820BFF34F8FBFF36F8F70474D
:1027400000E100E0002370B5124E05468380124B75
:102750000360336893F858200AB1D86C00B99868C0
:102760000368DB6A98473368B0FA80F4D86C640970
:1027700030B10368DB6A9847002808BF44F00104C1
:102780002CB9064B2C21064A06482FF029FF284673
:1027900070BD00BFD46F01201C5303081A520308F8
:1027A00078520308B152030870B5254E3568BFF35F
:1027B0005B8F15F0010540D130462FF09AFB0028C1
:1027C0003BD0204C204B04F134002561E584A56208
:1027D000A585C4E90035C4E902551EF0B2FE04F136
:1027E00058001BF0C1F9194B2046A365184B40F85F
:1027F000843BFFF7A7FF174B1748C4F884302433F6
:10280000C4F89050C4F88C304FF4C803C4F89C50FE
:10281000C4F8A850C4E928350023C4F8AC30C4F883
:10282000B030C4F8B430C4F8B8300C4BC4F89830A9
:102830002FF0F4FE30462FF068FB024870BD00BF59
:10284000481800204C180020EC8703083C5303086C
:10285000B4530308A08703080522000880870308F3
:102860000C490D4808B5FEF7E7FF0C4B0C4A4FF03A
:1028700080711A600122596283F82C200022C3E97A
:102880000122C3E90322C3E90522DA6183F8282083
:1028900008BD00BF80190020381900200819002049
:1028A00000540308014900200AF0D2BDC1110008FC
:1028B00008481523084A4FF46021C0E9002300238B
:1028C0004FF44012C0E90233C0E9041283618383EC
:1028D00005F00CBE842800200064004008B5642088
:1028E00009F0DEF8FBE70000094D0A4C08B52A7C28
:1028F0002046202107F06CF820466A7C4FF40051F6
:1029000007F066F805F020F9012009F0C9F8EEE7B4
:10291000002600200024024000B54FF4407395B01B
:1029200041F2883217480C93062306A90693002328
:10293000CDE90D330F930B931393CDE9113307F0CA
:10294000A5FEE0B9022301224FF4800104900D4856
:10295000CDE900331023CDE9023205236A46CDE9E3
:1029600005134FF0407306A90F9341F2883307F027
:102970008EFF003818BF012015B05DF804FB012060
:10298000FAE700BFA426002010B594B01022002161
:10299000022409A830F046FA1422002102A830F0DF
:1029A00041FA1E4B192107A81A6C42F080521A6492
:1029B0001B6C1B4A03F080530093009B136823F4A5
:1029C000404343F4004313601368012203F440437F
:1029D0000193019B4FF48033CDE907234FF480032B
:1029E000CDE90D434FF4A873CDE90F130723CDE9CB
:1029F0001144139307F0DEFF0F2300200521CDE9DA
:102A000002344FF4A053CDE904034FF4805302A8DD
:102A1000069308F0C1F914B010BD00BF00380240A1
:102A20000070004038B50D4A00250D4C0D4B204676
:102A30002562C4E900230123C4E90455C4E9025313
:102A4000C4E9065507F011F92946204607F021FB95
:102A500029462046BDE8384007F041BB00600040F1
:102A600098270020F7A3A0002DE98048BBB01022D2
:102A7000002101242CA81C2630F0D4F9032506F0EF
:102A8000EFF84FF0005ECD4B2CA8ADF8B04040F20F
:102A90000117CDE92DE3CA4B2F9306F0FFF84FF055
:102AA00010438DF8B14000242CA82D938DF8B86008
:102AB0008DF8BB40ADF8BE4006F0F0F802232CA81C
:102AC0008DF8BB508DF8B1301923ADF8BE708DF87C
:102AD000B83006F0E3F84FF040432CA88DF8B8600A
:102AE00004262D938DF8B1508DF8BB40ADF8BE4053
:102AF00006F0D4F817232CA88DF8B1608DF8B83003
:102B00008DF8BB50ADF8BE7006F0C8F8304606F040
:102B1000B5F8BFF34F8FBFF36F8FAA4AC2F8504288
:102B2000BFF34F8FBFF36F8F536943F4003353618B
:102B3000BFF34F8FBFF36F8FC2F88440BFF34F8F47
:102B4000D2F8803043F6E074C3F3C900C3F34E33C8
:102B50005B0103EA0406014646EA81750139C2F8C1
:102B60006052F9D2203B13F1200FF2D1BFF34F8F07
:102B7000536943F480335361BFF34F8FBFF36F8FBB
:102B800005F07EFC0024FFF7FFFE142200212CA894
:102B900030F048F98C4B42F222018C481A6B012527
:102BA0004FF400474FF4005642F010024FF0030B71
:102BB0004FF002084FF0040A1A634FF480691A6B51
:102BC00002F010020392039A1A6B42F002021A6397
:102BD0001A6B02F002020492049A1A6B42F040024D
:102BE0001A631A6B02F040020592059A1A6B42F4BE
:102BF00000721A631A6B02F400720692069A1A6B3C
:102C000042F008021A631A6B02F008020792079A50
:102C10001A6B42F004021A631A6B02F00402089263
:102C2000089A1A6B42F480721A631A6B02F480726B
:102C30000992099A1A6B42F020021A631A6B02F089
:102C400020020A920A9A1A6B42F080021A6300224A
:102C50001B6B03F080030B930B9B06F0B9FE012264
:102C60004FF40041594806F0B3FE0022C0215848F5
:102C700006F0AEFE00224021564806F0A9FE42F2C0
:102C800020032CA95148CDE92C35CDE92E4406F07E
:102C9000B5FD2CA94D48CDE92C75CDE92E5506F092
:102CA000ADFD4FF404132CA94B482E94CDE92C63B1
:102CB00006F0A4FDC0232CA945482E94CDF8BCB045
:102CC000CDE92C3506F09AFD40232CA94148CDE9E9
:102CD0002C35CDE92E4B06F091FD2CA93B48CDE9D2
:102CE0002C85CDE92E4B06F089FD224605212820B2
:102CF00005F064FF282005F093FF3946224633484B
:102D000006F066FE142005F0DFFB39462A462F4800
:102D100006F05EFE0A2005F0D7FB2422214615A806
:102D20000E9430F07FF8182221460FA82B4F30F078
:102D300079F8342221462CA830F074F82C22214650
:102D40001EA830F06FF8264B64213846C7E90034DE
:102D50000523CDE90C130CA9C7E902A506F0C2F9B9
:102D600015A938461D94CDE91554CDE91744CDE990
:102D70001944CDE91B4406F021FC1C2021234FF00F
:102D80000F0C0FA9CDE90F0319233846CDE911C364
:102D9000CDE9134406F0D5FB5146384606F0C0FB9A
:102DA00042F21071384606F013FD4FF48071384638
:102DB00006F035F94FF4807E14E000BF12000003E6
:102DC0000100010100ED00E0003802400024024053
:102DD000000802400014024000200240EC270020BE
:102DE000006C01404FF400734FF480424FF4003107
:102DF0004FF40020CDF8E080CDE92CE34FF40063E0
:102E0000CDE92E934FF480534FF01009CDE93036C1
:102E10004FF48033CB4ECDE932234FF48023CDE9FC
:102E200034134FF080732CA9CDE93603384606F0F1
:102E300043FB4FF4F0731EA938462895CDE920399D
:102E4000CDE91E44CDE9224ACDE92484CDE92644CA
:102E500006F0C0FA2146384606F0ABFA2146342285
:102E60001EA82FF0DFFFB84A4FF4F17C40F2E31EBA
:102E70003046C6F82080B48686F83640C6E900247D
:102E800040F22232C6E909C240F22332C6E90244C6
:102E9000C6E90BE2C6E90445C6E9065807F0CAF9D7
:102EA000FF214FF448724FF480604FF4F0731E948A
:102EB0002992ADF8A8408DF8AA40CDE92314052148
:102EC000CDE92128CDE9250122461EA93046CDE9CC
:102ED0001F34CDE9274307F079FA32683846936901
:102EE00023F00103936106F0CFFB2146404605F035
:102EF0005FF82823152221463846009406F0F7FB98
:102F00002CA9384636942027CDE92C44CDE92E440F
:102F1000CDE93044CDE93244CDE9344406F0CCFA71
:102F200032688A4E4FF4006C93692CA930462B43CB
:102F30009361874BB462CDF8B080C6E9003440237A
:102F4000C6E904734FF4C0734FF44077C6E9063402
:102F50004FF48053C6E908C30723C6E9024ACDE906
:102F60002D3ACDE92F38CDE9318B08F08FFA4FF6A5
:102F7000FF721EA930460F94CDE91E59CDE92054A9
:102F800008F0A4FA284605F09FFA4FF6FF721EA932
:102F90003046CDE91E89CDE9205408F097FA082380
:102FA0004FF6FF721EA93046CDE92034CDE91EB997
:102FB00008F08CFA4FF40C734FF6FF721EA90F93B2
:102FC00030460F9B20952193CDE91EA908F07EFA8B
:102FD00040F22A7130465F4E08F097FA43F2D2026F
:102FE0004FF0204330461A6003F580533462C6E93F
:102FF00000351923C6E90299C6E90437C6E9064433
:1030000007F0F2FA3297662741F288322CA930464F
:103010002C97359431943994CDE93344CDE9374434
:1030200007F034FB002840F0BA80992441F288323E
:103030002CA930462C9407F029FB002840F0AF80E3
:103040004FF4807341F288322CA9304632932C978A
:1030500007F01CFB002840F0A28041F288322CA926
:1030600030462C9407F012FB0446002840F097806D
:103070004FF47A7005F028FA4FF480031EAA2CA9A9
:1030800023934FF480733046CDF88090329305231C
:103090002C934FF08073359341F28833CDE91E4570
:1030A000CDE9215407F0F3FB002878D14FF4807369
:1030B000319041F288322CA9329305232C934FF0A2
:1030C0008073CDE93300CDE93650CDE93800304684
:1030D000359307F0DBFA002861D141F2883215A957
:1030E000304607F074FB002859D14FF480733590B7
:1030F000319041F288323293062339902CA92C93D7
:10310000CDE93300CDE93700304607F0BFFA00289B
:1031100045D100232C4621954FF0807522934FF422
:1031200080031EAA2CA9239305233046CDF8809056
:103130002C9341F288333595CDE91E8807F0A7FB23
:1031400068BB09E0F026002000680140242600202A
:10315000400100A0A42600204FF48073319041F27A
:1031600088322CA932939DF854302C9443F04003BC
:103170003595CDE93300CDE93640CDE9380030460C
:103180008DF8543007F082FA48B941F2883215A917
:10319000304607F0C0FA10B9282005F095F94FF431
:1031A000807341F288322CA9B748329335232C938F
:1031B0000023CDE93333359331933993CDE9373358
:1031C00007F064FAE0B941234FF0400A4FF0010BD9
:1031D00022901EAA2CA9AC48CDE91EA31023CDE94C
:1031E000203B4FF4800323934FF440733293052325
:1031F0002C934FF04073359341F2883307F047FB2F
:10320000B7234FF440741E930023249427932393F1
:103210002B93CDE92533CDE92933FFF77DFB18BB8F
:1032200041F288321EA9984807F030FAE0B9052328
:103230003190399015AA2C934FF0407315902CA91A
:103240003593012332941693CDE918301023179348
:103250004FF48003CDE93300CDE937001A9341F2F2
:103260008833894807F013FB05234FF440764FF06D
:10327000407401252C93002341F288322CA9824806
:10328000329635943193CDE93333CDE93653CDE9D8
:10329000383307F0FBF900284FD141F288321EA9DC
:1032A000794807F094FA002847D11523319041F26C
:1032B00088322CA932962C933594CDE93300CDE990
:1032C0003650CDE93800704807F0E0F9A8BB41F26C
:1032D00088320DF179016C4807F079FA68BBFFF785
:1032E0001BFB50BB0223C02232962C9535943190A3
:1032F000CDE93300CDE93630CDE9380092FAA2F2BB
:1033000003219DF87930B2FA82F25F4803F03F035F
:1033100001FA02F22CA9134341F288328DF8793078
:1033200007F0B4F948B941F288321EA9564807F0AF
:10333000F2F910B9282005F0C7F805234FF44076BC
:103340004FF0407401252C93002341F288322CA9C0
:103350004D48329635943193CDE93333CDE9365328
:10336000CDE9383307F092F900284BD141F2883289
:103370001EA9454807F02BFA002843D115233190A8
:1033800041F288322CA932962C933594CDE9330042
:10339000CDE93650CDE938003B4807F077F988BBD6
:1033A00041F288320DF17901374807F010FA48BB35
:1033B000FFF7B2FA30BB0223072232962C953594E0
:1033C0003190CDE93300CDE93630CDE9380092FABD
:1033D000A2F206219DF87930B2FA82F22A4823F04F
:1033E000070301FA02F22CA9134341F288328DF847
:1033F000793007F04BF928B941F288321EA92248EA
:1034000007F089F94FF4407300241EAA1F4D329330
:10341000EC232CA91C482C934FF4406339940126CB
:1034200033934FF440531A4F2F934FF04073CDE92D
:1034300034430A23CDE937443193CDE91E4407F0E4
:1034400077FA144B2846C5E90034C5E90244C5E9BA
:103450000E44C5E91044C5E9124405F0ACFC012155
:1034600028460D4D05F06AFDFFF7DCFAFDF7EDFA91
:103470000A480B4B848003600662C0E9054405F0EE
:1034800039FCFFF715FA0DE0A426002008280020DB
:103490000020004000B00240582600206028002094
:1034A0000030024053232846AC60AC61C5E900738C
:1034B0004FF47A73C5E9033408F0A6F9FDF7C7FAAB
:1034C000FDF7C4FA1248134B45608360124B067037
:1034D000C3606423438004F009FB08F053FA0F4AE9
:1034E00021460F4808F088FA0E4B0F4A2146186013
:1034F0000E4808F081FA0E4B0E4A214618600E481D
:1035000008F07AFA0D4B186008F056FAFEE700BF93
:103510000026002084280020B1280008A4540308B5
:10352000DD28000820260020805403085D0A0008DA
:103530001C2600205C540308E928000818260020F7
:1035400004F0C2BF0128034607B50AD84B781522FC
:10355000084800930B78002106F0C9F803B05DF825
:1035600004FB01910A5C002102480092392206F016
:10357000CFF8F3E7EC2700200268084B9A4210B519
:10358000044601D104F08EFF054B1B685B68A34223
:1035900003D1BDE8104004F021BB10BD0010004075
:1035A000BC290020704700000D4B82B00F216FF046
:1035B00001001A6C42F080521A641A6C02F08052B8
:1035C0000092009A5A6C42F480425A6400225B6C6A
:1035D00003F480430193019B02B005F0EFBA00BFF2
:1035E0000038024010B588B004461422002103A818
:1035F0002FF018FC2268234B9A4240D103F5EA339E
:10360000032121481A6C42F000721A641A6C02F00D
:1036100000720192019A1A6B42F002021A634FF48F
:1036200040721B6B03F002030293029B0223CDE95D
:1036300003230923CDE9061303A906F0DFF80022CE
:103640000521132005F0BAFA132005F0E9FA00224B
:103650000521142005F0B2FA142005F0E1FA002249
:103660000521152005F0AAFA152005F0D9FA162033
:103670000022052105F0A2FA162005F0D1FA08B0C3
:1036800010BD00BF0064004000040240026882B028
:10369000084B9A420BD1D3F8302803F5006342F46B
:1036A00080521A631B6B03F480530193019B02B099
:1036B000704700BF003002400E4B07B502689A42C7
:1036C00015D1A3F5F04305215A201A6B42F40002EC
:1036D0001A6300221B6B03F400030193019B05F0A6
:1036E0006DFA5A2003B05DF804EB05F099BA03B007
:1036F0005DF804FB00B0024010B588B00446142207
:10370000002103A82FF08EFB2268154B9A4225D189
:1037100003F54C4303A913485A6C42F000625A6403
:103720005A6C02F000620192019A1A6B42F4007224
:103730001A6304221B6B03F400730293029B02239F
:10374000CDE903230D23079306F058F862200022E9
:10375000052105F033FA622005F062FA08B010BDC9
:10376000006C014000240240F0B5ADB004461422C4
:10377000002103A82FF056FB9022002108A82FF06B
:1037800051FB2268254B9A4246D14FF4003308A8DA
:10379000089307F0CDFB08B1FFF704FF204C122778
:1037A00001260325236B03A91E4843F0020323636C
:1037B000236B03F002030093009B236B43F0080389
:1037C0002363236B03F008030193019B8023CDE95E
:1037D00003370B23CDE90565079306F00FF84FF487
:1037E000805303A91048CDE903370423CDE90565CB
:1037F000079306F003F8236C5F200022052143F0B5
:1038000080732364236C03F080730293029B05F0A2
:10381000D5F95F2005F004FA2DB0F0BD006000403E
:103820000038024000040240000C024010B5A6B06F
:1038300004469022002102A82FF0F4FA2268134BCC
:103840009A4220D1082302A80293C023079302239F
:10385000CDE9083301230C9307F06AFB08B1FFF7A9
:10386000A1FE0B4B582003215A6C42F080625A642F
:1038700000225B6C03F080630193019B05F09EF9CD
:10388000582005F0CDF926B010BD00BF00680140FA
:1038900000380240142200212DE9F0418AB004468C
:1038A0000DEB02002FF0BEFA22683A4B9A426ED11D
:1038B000394B0225032409269A694FF0040805A90B
:1038C000364842F0020200279A619A6922F0020209
:1038D0009A619A6B42F002029A639A6B02F00202BA
:1038E0000092009A1A6B42F010021A631A6B02F0EF
:1038F00010020192019A1A6B42F002021A631A6BCB
:1039000002F002020292029A1A6B42F004021A6357
:103910001A6B02F004020392039A1A6B42F0080237
:103920001A631B6B03F008030493049BCDE9058520
:10393000CDE9084605F062FF402305A91848CDE906
:1039400005350123CDE907340A23099305F056FF15
:103950004FF4C06305A913480996CDE90535CDE9B3
:10396000077405F04BFF05A90D480996CDE90585BB
:10397000CDE9077405F042FF4FF4005305A90A484A
:103980000996CDE90535CDE9077405F037FF0AB092
:10399000BDE8F081001000A0003802400010024095
:1039A0000004024000080240000C02400E4B07B524
:1039B00002689A4215D103F5063305212D201A6CB1
:1039C00042F480721A6400221B6C03F4807301932A
:1039D000019B05F0F3F82D2003B05DF804EB05F032
:1039E0001FB903B05DF804FB00200040F0B50023D0
:1039F00087B003932A4B1E68002E4FD10122022765
:103A000003250C241A6001A9264B27489A6B42F023
:103A100001029A639B6B03F001030093009B4FF636
:103A20008373CDE90454CDE9013705F0E7FE48F290
:103A3000331301A91D480594CDE90137CDE903658C
:103A400005F0DCFE4CF2037301A919480594CDE999
:103A50000137CDE9036505F0D1FE40F2FF6301A90E
:103A600014480594CDE90137CDE9036505F0C6FE9C
:103A70004FF63F0301A910480594CDE90137CDE980
:103A8000036505F0BBFE4FF62C7301A90B480594A6
:103A9000CDE90137CDE9036505F0B0FE07B0F0BD13
:103AA000AC280020003802400010024000180240FC
:103AB000000C02400020024000140240001C0240A2
:103AC000214B1A6C42F0100270B51A6488B01B6C5E
:103AD000054601A903A803F010030293029B07F017
:103AE00009FA069B4BBB07F0F5F9184E184B3360EB
:103AF00040F2E733F360174BB0FBF3F3013B304682
:103B0000736000233361B360B36107F07DFE044648
:103B100080B9304607F012FD044658B9362005F04A
:103B20007FF80F2D0DD822462946362005F046F89D
:103B3000094B1D60204608B070BD07F0CBF940006E
:103B4000D3E70124F6E700BF00380240B028002088
:103B50000010004040420F00E80300207047FEE7DD
:103B6000FEE7FEE7FEE77047014804F00FBF00BF25
:103B700084280020FFF7F8BFFFF7F6BFFFF7F4BF78
:103B80004FF4005005F032BF014807F031BD00BFCF
:103B900058260020014807F02BBD00BFB0280020A8
:103BA000014806F0B6BB00BFF0260020014805F032
:103BB0003AB900BF08280020014806F063BA00BFE8
:103BC00098270020014805F082BB00BFEC270020A9
:103BD0000120704708B52FF0D9F9162303604FF084
:103BE000FF3008BD08B52FF0D1F916230360FEE7BA
:103BF00070B50D4614460E46731B9C4201DC2046F0
:103C000070BDAFF3008006F8010BF5E770B50D4607
:103C100014460E46731B9C4201DC204670BD16F80C
:103C2000010BAFF30080F5E74FF0FF3070474FF422
:103C3000005300204B607047012070470020704700
:103C40000A4A116808B5034609B9094911601068A4
:103C5000694603448B4206D92FF098F90C23036080
:103C60004FF0FF3008BD1360FCE700BFFC280020C8
:103C7000187D0120704710B5044604212EF037F955
:103C8000204610BD012908B506D0022908D059B92F
:103C900000F0D8FB006808BD00F0D4FB4068FAE7EC
:103CA00000F0D0FB8068F6E70020F4E7004870479A
:103CB000DC5403080120704713B5002451B1036898
:103CC00001AA01948DF803409C680DF10303A047FD
:103CD00002B010BD0846FBE7C0897047008A7047F4
:103CE000C088704780887047807A00F07F007047F6
:103CF000807AC00970470020704700009FED010ADC
:103D0000704700BF000000007047704700F59873CF
:103D10000868496803C3704770477047416070473F
:103D200070470000064BC0F84801C0F84C31002332
:103D3000C0F8503100F5A273C0F84031704700BFA1
:103D4000E53D00080123037270477047704710B4C7
:103D500041680346C2689B68541001EB6200D207B9
:103D600048BF0A595DF8044B48BFD358184703466B
:103D7000406830B19A681AB9D86800F001007047FD
:103D80000120704710B504460C212EF0B0F82046F3
:103D900010BD10B5044610212EF0A9F8204610BD24
:103DA00010B504464FF4AE712EF0A1F8204610BDB8
:103DB00010B51BF073FE0368BDE81040DB6B1847BD
:103DC00010B50446D0F8400158B10368DB68984745
:103DD00038B1D4F8400103689B6898470023C4F8C1
:103DE000403110BD2DE9F14FD0E9556A0746B06862
:103DF00003681B6A9847972805D8444BA321444A77
:103E000044482EF0EDFB706803681B6A98470F2842
:103E100003D8414BA4213E4AF2E7F06803681B6ACD
:103E200098470B2803D83D4BA521394AE8E7DFF82E
:103E3000F4901BF033FE04301BF055FED9F800005F
:103E400010B10368DB689847D9F8000010B1036827
:103E50001B689847DFF8D080D8F8000010B10368DD
:103E60005B699847D7F83C0110B103685B689847D5
:103E7000D8F8000010B103681B689847D7F83C01D8
:103E800010B103689B689847F06800214FF0000B61
:103E900003685B6A9847224B0446C0F804B080F878
:103EA00008B059460360B06803685B6A98470546E6
:103EB00000F032FB7068594603685B6A9847064613
:103EC000294600F009FB331DC7F83C612846C9F8B4
:103ED0000040C8F80050CAF800302B68C6F808A0A7
:103EE000DB68EE639847336830461B689847214685
:103EF00028461DF089FF236820461B6998472368E0
:103F000020465B6901B0BDE8F04F1847F054030844
:103F10007E55030850560308975603083A5703087E
:103F2000545803081C70012018700120044B1B68B2
:103F300093F858200AB1D86C00B99868704700BF50
:103F4000D46F012070B504460D4616461BF06CFE7A
:103F5000104A0023012114600F4A22600F4AC4E96D
:103F60005333C4E95123C4E94F330D4B1868036838
:103F7000C4E955659B689847FFF7D8FF25F0CFFE49
:103F8000FFF7D4FF25F046FFFFF7D0FF25F04EFFE7
:103F9000204670BD2870012000580308E857030828
:103FA000D46F0120064BC0F84801C0F84C31002303
:103FB000C0F8503100F5A273C0F84031704700BF1F
:103FC000E53D0008406A7047806A704770470B887B
:103FD0008A889BB2D20A10B54C88C16943EA04436F
:103FE00051F82200184410BD10B50446BAB1107B38
:103FF00068B1537BD27A1B0203F4E0631A43236A4D
:1040000003EB82031A888A4202D193F9020010BDA1
:1040100005D80138043380B20028F3D1F7E7002037
:10402000F5E710B504462C212DF061FF204610BDA8
:1040300030B58BB00446BDF860500895BDF85C50B3
:1040400007959DF8505006959DF84C5005959DF8A4
:10405000485004959DF8445003959DF840500295B2
:104060009DF83C500195BDF8385000951DF026FB99
:10407000064B20462360159BE361169B2362199B28
:1040800063621A9BA3620BB030BD00BF785803086F
:10409000704770477047704770477047704710B55A
:1040A000044698212DF023FF204610BD036870B50B
:1040B00004461B6B154698472368204629465B6BD0
:1040C000BDE87040184700002DE9F3410446002583
:1040D0001DF0EEFC2D4B2646E5634FF4807204F193
:1040E0006C0746F8403B01A9294B3846A4F86420E8
:1040F00004F10408A4F89020264A2566E266A56625
:10410000C4E91035FF2384F866304FF6FF73C4E925
:104110001255A4F8923084F89430ADF80430C4E914
:104120001455C4E91655C4E91C55C4E91E55C4E923
:104130002055C4E9225519F072FD2A462946304619
:10414000FFF7B4FF30464FF4F071FEF70BF830463E
:104150004FF44871FEF708F84FF07F433146404670
:10416000A36616F063FE2A4629463846FFF79EFFEF
:1041700001A93846ADF8045019F051FD40463946C2
:1041800016F054FE204602B0BDE8F081E058030866
:10419000B0880308188903087047000030B5164D31
:1041A0008FB02C68BFF35B8F14F0010420D1284638
:1041B0002DF09FFEE0B13F23012210490993104BDF
:1041C00010480893104B0A940594CDE90643042344
:1041D000CDE903320A23CDE90B440093CDE9014434
:1041E000FFF726FF09482EF019FA28462DF08DFE1C
:1041F00004480FB030BD00BF0029002078B90B90F3
:10420000C48F030804290020D08F030899410008B7
:104210007047000030B5164D8FB02C68BFF35B8F30
:1042200014F0010420D128462DF063FEE0B13F23B5
:10423000012210490993104B10480893104B0A941F
:104240000594CDE906430423CDE903321423CDE9D7
:104250000B440093CDE90144FFF7EAFE09482EF034
:10426000DDF928462DF051FE04480FB030BD00BFE7
:104270003029002088B90B90C88F0308342900200A
:10428000D48F0308114200087047000030B5164D66
:104290008FB02C68BFF35B8F14F0010420D1284647
:1042A0002DF027FEE0B13F23012210490993104B66
:1042B00010480893104B0A940594CDE90643042353
:1042C000CDE903322823CDE90B440093CDE9014425
:1042D000FFF7AEFE09482EF0A1F928462DF015FE95
:1042E00004480FB030BD00BF6029002098B90B9082
:1042F000CC8F030864290020D88F03088942000866
:1043000000207047002070470EB403B503AB0021B6
:1043100053F8042B01931CF04FFC02B05DF804EB42
:1043200003B070470CB407B504AB53F8042B0193EA
:104330001CF042FC03B05DF804EB02B070470000D3
:10434000436C10B5044673B3038F2BB9184BC521CA
:10435000184A19482EF044F9C38E00EB43035B8CD6
:104360000BB31EF04BFA238F012B03D8134BCB2139
:10437000134AEEE7E28E40F63F10531C9BB2092B26
:10438000194688BFA3F10A0104EB4101498C81421F
:1043900009D10A2B04EB420228BF0023508C04EB06
:1043A0004303588451842046BDE810401EF028B9CC
:1043B0000C59030815590308C05903080A5A030881
:1043C000185A03081EF0E5B838B518BB124B13484D
:1043D0001C681349B4B12268224402606268224416
:1043E0000A60A26814440F4B00221A8000F02AF8D9
:1043F000054600F025F80C4B1C600C4B1D600C4B67
:10440000188007E00B4B03600B4B0B600B4B1C68D9
:10441000002CE8D138BD00BF9C2900209429002041
:1044200090290020982900202C7001203470012050
:1044300030700120ACB90B90A8B90B90B0B90B90BB
:104440000020704700487047A029002010B5054C97
:10445000FFF7E0FE2060FFF719FF6060FFF79EFEA8
:10446000A06010BDA029002010B5002404600C60DD
:1044700014601C6010BD704710B504464FF4AE7157
:104480002DF035FD204610BD10B50446D0F858017A
:1044900000F013F82046BDE810401BF081BB00007F
:1044A00010B50446FFF74EFD014B2046236010BDBA
:1044B000F45A0308002202607047704770470438BE
:1044C0007047704710B5044610212DF010FD2046AE
:1044D00010BDA0F10400F5E70022C1608260024A2D
:1044E0000260183242607047485B03087047000062
:1044F000034B10B504460360FFF7CFFD204610BD07
:10450000705B030810B50446FFF7F2FF98212046C0
:104510002DF0EDFC204610BD10B50446FFF7D4FD8C
:10452000014B2046236010BD705B0308FFF7B6BD4A
:1045300030B520B319B313B3032A02D8447CF4B9BD
:10454000EAB14468257F012D19D9407C94F82020D8
:1045500020B90A70012200201A6030BD824210D3B7
:10456000627F121A90B2002A07DA284402B2A069C8
:1045700050F832200A600422EDE7A842F7D3092060
:10458000EBE71920E9E710B5044660B1407C50B96B
:1045900049B1012A07D133B1087830B9616881F88F
:1045A00020001A6010BD0920FCE70F20FAE710B5C3
:1045B000044698B1407C88B981B1032A0ED96BB109
:1045C0006268546A92F82820B4FA84F4803264094C
:1045D00042EAC4720A6004221A6010BD0920FCE796
:1045E0002DE9F04F85B00D46174699469DF838B035
:1045F0000446DDF83C809DF848A0139E20B94FF09A
:10460000FF3005B0BDE8F08F002AF8D013B9BBF138
:10461000010FF4D8B8F1000FF1D0002DEFD04FFA10
:104620008AF3002BEBDD119B002BE8D050220021F8
:1046300020462EF0F7FB002301223846194665611B
:1046400000F005FDE06030B916B96FF00B00D8E757
:104650003B883360F9E70123002103AA017040463B
:10466000C4F8189084F81CB00093042300F0BEFC3A
:1046700000282CD11B4B039A1340002B2FD1039BF6
:10468000002624638AF08002DB43BDF840102846F0
:10469000DB0F6362144B6363144BA36304F13003B9
:1046A000C8F80830082384F828A0CDE9003633463E
:1046B00003F0B9FBE0620028A1D00D4B3046246422
:1046C000403463600B4BA360119B9C6099E7002E04
:1046D000BBD0B8F8003033600028D0D0B5E7002E4A
:1046E000CDD0F6E700F8FF7FAF4500084B4E00083D
:1046F0003145000887450008F0B5059E0D4698B184
:104700004F2A4FF001044FEAD20791BF02F0070190
:10471000052716464FF4C24398BF8C40C15D98BF31
:10472000E4B221400DB119B1F0BD0029FCD02B46F7
:104730004169EFF3108CC1F830C072B6C15DA5B10C
:104740002143C155047F012C0AD9457F877F691C0D
:10475000C9B28C4298BF00218F4209D10123C3778F
:1047600043691B6B83F31088DEE721EA0401E8E765
:10477000876943EA0263013C07EBC50C47F8353013
:10478000CCF8046090F820304177A342BCBF0133DD
:1047900080F82030E4E743692DE9F3415D8A04465F
:1047A000068A8846AE4257D06E4040F20113058219
:1047B0001E420AD01D424FF001024FF0000314BF09
:1047C000114619460093FFF797FFB30709D5002359
:1047D0000722C5F340012046009348F22013FFF75B
:1047E0008BFF770709D500231222C5F380012046ED
:1047F000009348F24013FFF77FFF300709D50023ED
:104800001422C5F3C0012046009348F21013FFF7AD
:1048100073FF310609D500231522C5F3C0112046C8
:1048200000934FF40143FFF767FFB20509D500235A
:104830000622C5F340212046009348F22013FFF7DB
:104840005BFF330508D50023C5F3C0212046009344
:1048500013231A46FFF750FF67796388003F18BF9C
:1048600001270BB147F0100723890BB147F08007F0
:10487000E3681F70B8F1000F32D0237F012B2FD9CE
:10488000A57F637FAB422BD0E26A166946BBA36962
:1048900029B253F8310003EBC50C40EA074043F856
:1048A000310053F83130C2F80530DCF80430C2F87A
:1048B0000930E16A606903F0D3FA6A1C237FD2B23F
:1048C000E17F934298BF00220129A2770BD10223F6
:1048D0002022E3774FF4805300962046FFF70CFF29
:1048E00002B0BDE8F0810229FAD1637F9342F7D18B
:1048F000E6773346202231460096EEE70B79012B0E
:1049000002BF4A79C360427070470000F0B50446A8
:1049100085B0002840D090F808E08E453CD9D0F80A
:1049200004C09BB192B1002566462846EFB28F4283
:1049300006D0B76827B13778974208BF6FF00B00F1
:1049400001351036EFB2BE45F0D8F8B90D010CEBC9
:1049500001100CF805204FF47A755D438560FF2542
:1049600045700025C5609AB193B102F5E06201235C
:104970008370A38B19440A4BCDE90103002389B24C
:10498000009340F2FF73A06903F025FA05B0F0BD73
:10499000002385601A46EBE74FF0FF30F6E700BFD3
:1049A000FD4800082DE9F041044616461F460D4615
:1049B000C9B1417CB9B14068037A8B4213D3042A50
:1049C00011D187B12A68013993B2C2F30742C9B243
:1049D000FFF79CFF50B93B46324629462046BDE8CA
:1049E000F04100F032BA0920BDE8F0810820FBE771
:1049F0002DE9FF470F9F894690461E460446DDE994
:104A00000C5A002851D000294FD0002A4DD0002D3B
:104A10004BD0BAF1000F48D02822002108302EF0E8
:104A200001FABDF83830C4F818A0A383C4E900988F
:104A3000AB784FF00109B3429CBF03F1FF33DEB204
:104A400026720026237AB34208D8194B002024622C
:104A500020346360174BA360AC6011E006F10108DD
:104A6000042303AA28465FFA88F8CDF8009041464F
:104A700000F0BCFA38B10FB12B883B606FF00B002F
:104A800004B0BDE8F087039A3146204693B2C2F3E2
:104A90000742FFF73BFF08B94646D3E70FB12B8823
:104AA0003B6010F10C0FF7D0EAE74FF0FF30E7E77B
:104AB000FD4D0008A54900082DE9F04F85B00546D9
:104AC000924643690391002974D0002B6CD10022D7
:104AD000297AFF2001261446D3B28B426ED30026DA
:104AE00037463AE06C6804EB0814A37873B3E268C5
:104AF000002A50D094F90120002A46D1022B08D177
:104B0000CDF8008048F230131C2201212868FFF7FD
:104B1000F3FD0123A3705346C4F80CB0A278022A17
:104B20003BD162681344A2689342636036D348F273
:104B30003013CDF800801B22012128680026FFF7E2
:104B4000DBFDFF23374663700323A37009F10109DE
:104B50002B7A5FFA89F84345C4D8EC6874B96FB111
:104B600023461B22214600942868FFF7C5FD0094C8
:104B700023461C2221462868FFF7BEFD039BC5E99A
:104B800003766B6105B0BDE8F08F0223C4F804B072
:104B9000A3700023C0E75346C0E7002794F9013013
:104BA000052B18BF0026D1E74FF000090126CB46A0
:104BB0003746CDE7002B8AD1012691E76B6803EBDE
:104BC00002139F785870DC6007B19E70013283E752
:104BD0000B79022B06D18B7913B1C2789A4201D19D
:104BE0004B7983707047F0B490B190F811C0BCF16C
:104BF000000F0DD161B1022A0AD14BB10C884FF4DC
:104C00007A7546686C43C6E9024CF0BC00F01DB9E9
:104C10000920F0BC704700002DE9F04786B00D4632
:104C200016469A46DDF840800446139FDDF85890FA
:104C300000285FD000295DD0002A5BD0B8F1000FBA
:104C400058D0002F56D02C2200212EF0EBF8BDF8C2
:104C5000383026624FF47A76A3800DF11602BDF843
:104C60003C30002184F803A028467343E36001230D
:104C70000093022300F0BAF950B1B9F1000F02D04D
:104C80002B88C9F800306FF00B0006B0BDE8F08744
:104C90001A4A4046BDF816306261194A73432461CE
:104CA000A26104F11002A360AA60E268BDF844109A
:104CB0009342BDF8482038BFE360124BCDE9014371
:104CC0000023009340F2FF7303F085F80028DCD145
:104CD00001236762BDF85420019000930346BDF89C
:104CE0005010384603F09FF8A062B0FA80F04009F7
:104CF0004042CAE74FF0FF30C7E700BFFD4D000854
:104D0000E74B0008D14B0008F8B5C368044690F99A
:104D100000500E4693428CBF9A1A0022C26035B1F1
:104D200083688BB11AB190F90130AB420CD0A16A03
:104D30004D71606A03F094F8002D3DD1A38813F4FF
:104D4000807F0CBF7F250525A078657050B1802835
:104D50003ED034D801283ED002284FF000003DD08C
:104D60000023A370A18811F480520BD0236A002B7A
:104D700038D09A78570735D4DB7813F0180F14BF62
:104D80000122002211F4005308D0236A13B1DB681A
:104D900003B11B78194214BF01230023052D23D131
:104DA00052EA030720D011F4804F0CBF7F25042561
:104DB000257006B13570F8BDA368E360C4E78128AB
:104DC0000ED0A0F1820CDCF1000040EB0C00C7E734
:104DD00000207F25C4E700200525C1E70425BFE7A3
:104DE0000220BDE70122CDE70904E1D57F2DDFD107
:104DF0001A4308BF0525DBE702207047F8B50646D1
:104E00001F460846FEB1F1B1EBB13168B568C1B1DA
:104E1000F4683CB9954207D82A462EF0E4F83D6084
:104E20002046F8BDAC420ED22D1B2144AA4237BF0A
:104E3000A41800241546F46034BF4FF0FF34F4602A
:104E4000EAE70E24ECE70924EAE7F8B51F46054631
:104E500010B309B303B384680068D8B1EE682EB903
:104E6000944205D8944219D300250AE0A64213D2F1
:104E7000A41B3044A2420AD216441446EE604FF0FE
:104E8000FF3522462EF0AFF83C602846F8BD0023DF
:104E9000EB60E7E70E25F8E70925F6E70C25F4E7D0
:104EA00002207047F0B5044650B3008878B101384D
:104EB00000224FF00C0E86B2B24209D320D10C234F
:104EC0005A43636898189B5A8B4218BF0020F0BD64
:104ED0009319D4F804C05D10C3F34F030EFB05F71C
:104EE0000CEB07003CF807708F42F0D003D92DB1CE
:104EF000013B9EB2E0E701339AB2DDE72A46DEE7E6
:104F00000020E4E7F0B500285AD04468002C57D0C0
:104F100042B1C57805F00F05022D21D0032D03D035
:104F2000012D08D009201AE087780026F5B2AF429B
:104F30002BD80E2013E00029FBD1257915742568A4
:104F4000A46815608068946000B15BB31D4B536129
:104F50001D4B93610023002053605174D060F0BD5D
:104F600085788D42E5D929B9257A157424681460AD
:104F70000124E7E7657A157465681DB14E1E27693F
:104F800007FB0655E4681560DCE7254601360C345E
:104F900095F804C08C45C9D16C7914742C681460E0
:104FA000AC68CFE74368094C002B08BF2346084C88
:104FB00053618368002B08BF234693610368CAE7E7
:104FC0000520CCE7FD4D00084B4E0008F94D0008C8
:104FD000A14E0008C3B2192B9ABF024B53F8200010
:104FE000014870479C5B03084700040630B51D4626
:104FF00089B0144682B1002301AA00930C9BFFF7ED
:1050000081FF38B9039AAA4208D121466B4601A80C
:10501000069CA04709B030BD0920FBE70B20F9E74B
:1050200030B51D4689B00023144601AA00930C9B9D
:10503000FFF768FF38B9039AAA4206D121466B46AA
:1050400001A8079CA04709B030BD0B20FBE730B595
:1050500089B015461C46012301AAFFF753FF60B92A
:10506000019848B1039B3BB10DB1AB4209D10CB1E2
:105070000023237009B030BD092004B12070002046
:10508000F8E70B20F9E703B11A6000207047000031
:105090002DE9F04F0C4689B006461546C4F3C40806
:1050A0009946090CC4F30727B8F1080F4FEA142AF0
:1050B0005BD81F2914D89FB91C24394604FB020071
:1050C000142210302DF0AEFE04FB0563294A5A620B
:1050D000294AC3E906889A62002009B0BDE8F08F2A
:1050E0001298FFF7DFFE002301AA39468346FFF737
:1050F00009FF0028F1D1B9F1000F9DF8143014BF59
:10510000082204221A4232D0630730D1039B434560
:105110002DD34FF01C0E01AC0EFB056E0FCC0EF123
:10512000100CACE80F0094E807008CE80700CEF8FC
:105130001C80B9F1000FCFD11F2F05F13C0210D810
:10514000DBF808306BB103EBD7030AF0070A3544EC
:105150000C3346F82230012303FA0AFA85F810A12D
:10516000BAE7002346F82230B6E70720B5E7062065
:10517000B3E700BF8B560008875000082DE9F341C4
:105180000D4617461E460446002844D0002942D04A
:10519000002B40D0427C082A3DD84068D0F808C097
:1051A000BCF1000F02D1437B13B112B102202FE0FA
:1051B00012BB2A78082A32D8014600235FFA8CFEF7
:1051C00072450ED8082B2AD803B952BB0373427319
:1051D00033463A462946204602B0BDE8F041FFF783
:1051E00034BE884651F81CEF0CF1010CD8F8188039
:1051F000F04512D37344E1E7D0F81C31013A009333
:10520000D2B2D0F818310968FFF742FF0028DFD08A
:1052100002B0BDE8F0810920FAE70620F8E7072090
:10522000F6E70F20F4E700002DE9F0470D4686B0C1
:1052300090469946074618B9092006B0BDE8F087A0
:105240000029F9D0002BF7D0042AF5D8446805A826
:105250002DF0C9FE7B7C022B69D0052B7BD0012B66
:1052600057D12E68424BB1B2C6F30A053340002B2A
:105270007BD1002EA26824DB1AB1B4F82431AB42F2
:1052800073D111F4F06F70D06FF480702B189BB253
:105290007F2B6AD96FF4B0616B189BB27E2B64D9F7
:1052A0006FF4C063EB189BB27E2B5ED9A5F5DC636F
:1052B0009BB21F2B59D9B5F5E06F56D8637B002BF5
:1052C00053D0F343DB0F934203D1B4F82431AB4204
:1052D0001FD0B4F822314FF0000AB4F82011AB42CD
:1052E000CDF800A004BF26F07F030593002E214BCC
:1052F000B8BF0025CDE901432A4640F2FF7360683C
:1053000002F069FD56450BDB50B90123A4F8245186
:10531000A3604B46424605A93846FFF796FD8CE749
:10532000C4F808A0C4E952AA0028F2D084E729787A
:1053300001F10F03DBB20C2B17D9F029D4F8683137
:105340008CBF002101218B42C4F868111CBF0023CF
:10535000C4F84C31DDE72B884FF47A725343C4F81C
:105360006C310023C4F87031D3E70F2065E700BF2C
:1053700000F8FF3F79530008836890F8602170B50A
:1053800003B30B79047B9C4223D81ED1012A08BFAA
:105390000B22D0F8683133B1D0F864311BB1DB682F
:1053A000003B18BF0123D1F8054003F12A05523311
:1053B00040F8354000EBC506D1F809400121746082
:1053C00040F8231080F8602170BD002A08BF0D222C
:1053D000DFE7002A08BF0C22F4E700002DE9F043C4
:1053E0000D4685B017469846064618B9092005B0FF
:1053F000BDE8F0830029F9D0002BF7D0042AF5D8B6
:10540000446803A82DF0EFFD737C013B052B65D8A4
:10541000DFE803F0036B84648E9829684E4B88B2F2
:10542000C1F30A050B40002B40F094800029A268CC
:1054300028DB22B1B4F82431AB4240F08B8010F469
:10544000F06F00F087806FF4807905EB09039BB261
:105450007F2B7FD96FF4B06C05EB0C039BB27E2BD6
:1054600078D96FF4C0602B189BB27E2B72D9A5F54A
:10547000DC639BB21F2B6DD9B5F5E06F6AD8637BF7
:10548000002B67D06FEA01094FEAD979914503D122
:10549000B4F82431AB4221D0B4F82231AB4204BF7E
:1054A00021F07F030393002994F84C31B8BF002505
:1054B000B4F82011F02B2A468CBF0023012301935E
:1054C000237B00930023606802F0ADFC00288DD0A0
:1054D000C4F84801C4F80890A4F8245143463A4659
:1054E00003A93046FFF7B1FC81E72B7803F10F02E7
:1054F000D2B20C2A2ED9F02BD4F848218CBF00212F
:1055000001215161FF2284F84C31012384F8592193
:10551000C4F850310023C4E95933DFE7A268CAB99F
:105520002B886421C4F864214B43C4F85C31D5E76F
:105530002B884FF47A725343C4F860310023C4F8C7
:105540006831CBE7A3682BB92B78F02B02D884F80D
:105550005831C3E70F204AE700F8FF3F2DE9F04F2D
:1055600089B01446064605930123049100210DF1EC
:105570001B0220460093DDF84CB08DF81B10FFF79E
:1055800035FD054660B1129B23B104B12488240285
:10559000129B1C606FF00B05284609B0BDE8F08F28
:1055A000B1468046074600235FFA88FA07AA2046DC
:1055B00007930AF101010123C9B200930423FFF705
:1055C00015FD0E28039024D038B1129B002BE1D09A
:1055D00004B1248848EA0424DAE7049B5246079978
:1055E00030460093059BFFF753FD58B1039BC9F864
:1055F0001830FF23C9F81C30DBF8003013B9079BC3
:10560000CBF800309DF81B30534584BFD9F81C30CF
:10561000FF1808F1010809F11C09B8F1080FC2D1FF
:10562000082FDBF8003003D847B99DF81B202AB1BA
:10563000002BB1D10123CBF80030ADE7002BABD16B
:105640009DF81B3037737373A6E770B505460C469B
:105650001E46FFF7D3FBB8B96B7C012B14D133681E
:10566000042B11D123686A68C3F30A053DB1B2F86F
:10567000221121F07F06B54208BF61F30F03926843
:105680000AB943F00043236070BD70B50646144666
:105690001D46084661B15EB153B1B36800219A421C
:1056A00028BF1C4622462DF0BDFB00202C6070BD9B
:1056B0000920FCE72DE9F04F90F84C3187B0D0F885
:1056C00048610446013B4FF0000905364FF01C0BC2
:1056D000DBB20093637B5FFA89F5AB4212D80023FB
:1056E000D4F848116068C4F85031D4F86031C4F877
:1056F0006831D4F85C31C4F8643107B0BDE8F04FCC
:1057000002F0AEBB0BFB05F30BFB054A03F11000E7
:105710002344DAF824709A69204493F81C80082AFC
:1057200028BF08224245019285BF002304A93146C3
:10573000CDE904330023CAF81C3003ABB847019A03
:10574000CAF81C80424504D9424604A930462DF0CF
:105750004AFC05F13C0354F8233043B1009AFC2A7B
:1057600005D925441A7895F810110A431A70464451
:1057700009F10109AEE700002DE9F04F8BB0884632
:10578000154604460593BDF86030BDF850B0159F2E
:10579000DDF864900493002800F0D080002900F028
:1057A000CD80002A00F0CA80002F00F0C780169B31
:1057B000002B00F0C380179B002B00F0BF804FF43C
:1057C000BA7200212DF02EFB179B256041466360C5
:1057D0000023169A2046089308ABCDE900930123D5
:1057E000FFF7BCFE054668B901210990042309AA08
:1057F00038460091FFF7FAFB78B1B9F1000F05D1F7
:105800006FF00B0528460BB0BDE8F08F3B881B02FC
:1058100043F00103C9F80030F2E7099A002AC2F305
:105820000A0607DB637B0BB1002E44D1089B0BB942
:10583000012308934FF0000A089B53B1012B08BFC6
:10584000134601211A2200934FF402432068FEF709
:1058500053FFBAF1000F31D026B12BF07F039E42E7
:1058600008BF5E46374B324604991798CDE901438D
:105870000023009340F2FF7302F0ADFA05460028C2
:10588000C0D1C4F808A0FE234FF0010A0DF11D029B
:105890008DF81D30022153463846CDF800A0FFF7A1
:1058A000A5FB054660B1B9F1000FA9D03B881B02EA
:1058B00043F00203AEE74FF0010ABDE75646D1E7D9
:1058C000059B0DF11E02ADF81E000521C4F86431E0
:1058D00038469DF81D30F02B8CBF00230123C4F8FF
:1058E00068310223CDF800A0FFF780FBBDF81E3021
:1058F0004FF47A72A4F822B1A4F824615343C4F897
:105900002841C4F86C31049BC4F83841A4F8203114
:105910000D4BC4F82C310D4BC4F830310C4BC4F88E
:105920003C310C4BC4F8403104F59473C4E946A8EB
:10593000BB6004F59C74169B9C6063E74FF0FF35D9
:1059400060E700BF795300084B5600082952000851
:10595000FD4D00087D5100082DE9F04F8BB0044645
:1059600005918168149A002900F09780002B00F0BF
:1059700094801AB9D0F86831002B42D194F8602194
:105980000A2A13D9B2F10B05237B48F2202118BF54
:105990000125009348F2102320680C2A18BF0B46FB
:1059A00004222946FEF7A8FE84F86051D4F8683135
:1059B00033B1D4F864311BB1DB68B3FA83F35B090C
:1059C00003F12A0204EB83094FF01C0B04EBC20223
:1059D000049200220292D9F84831ABB9D4F86C1184
:1059E00079B10298D4F87021002841D0914205D2B3
:1059F0000092194617222068FEF77EFE0123C4F8A4
:105A000070310BB0BDE8F08F00250123049EC9F86A
:105A100048510293637BEFB2BB42DCD90BFB0743D7
:105A20009A6993F81C80082A28BF0822904503929F
:105A30001CD200233146424608A8CDE908332DF098
:105A4000D2FA08A90BFB07F70023039A464404EB9C
:105A5000070A07F110000135CAF81C302044DAF8B3
:105A6000287007ABB847CAF81C80D3E73146E9E78E
:105A7000002AC6D09142C4D9059B13449942C4F868
:105A80007031BED21493172248F2502301212068AE
:105A90000BB0BDE8F04FFEF72FBE0023C4E9523330
:105AA000ADE700002DE9F04F89B089461546044660
:105AB0000393BDF85830BDF848A0139E179F02937A
:105AC00028B94FF0FF35284609B0BDE8F08F00290E
:105AD000F7D0002AF5D0002EF3D0149B002BF0D085
